:020000040800F2
:1000000000040020470100080D0200080F0200084C
:1000100013020008170200081B020008000000007D
:100020000000000000000000000000001F020008A7
:100030002102000800000000434E000825020008CD
:1000400067010008670100086701000867010008F0
:100050006701000867010008350200086701000811
:1000600067010008670100086701000867010008D0
:1000700067010008670100086701000867010008C0
:1000800067010008670100086701000867010008B0
:1000900067010008670100086701000867010008A0
:1000A0006701000867010008670100086701000890
:1000B000AB1D000867010008670100086701000820
:1000C0006701000867010008670100086701000870
:1000D0006701000831210008670100086701000876
:1000E0006701000867010008670100086701000850
:1000F0006701000867010008670100086701000840
:10010000670100086701000867010008670100082F
:10011000670100086701000867010008670100081F
:10012000670100086701000867010008670100080F
:10013000DFF80CD005F02CF80048004775010008E6
:10014000A8230020704708488047084981F30888A1
:1001500007480047FEE7FEE7FEE7FEE7FEE7FEE7AB
:10016000FEE7FEE7FEE7FEE745010008A8230020C2
:100170003101000810B501F017FD03F028FE08A0BA
:1001800005F018F80423124A0021124804F0DBF9A4
:1001900011A005F00FF803F035FF002010BD00009E
:1001A0002A2A2A2A2A2A2A2A2A2A2A2A2ACFB5CDDC
:1001B000B3B3F5CABCBBAFCDEAB3C92A2A2A2A2AEF
:1001C0002A2A2A2A2A2A2A2A2A2A2A2A0A0A000023
:1001D000A4010020C13800082A2A2A2A2A2A2A2A09
:1001E0002A2A2A2A2ACFB5CDB3D7BCB1B8BDF8C8C0
:1001F000EBD7B4CCAC2A2A2A2A2A2A2A2A2A2A2A43
:100200002A2A2A2A2A2A0A0A00000000704700BF68
:10021000FEE700BFFEE700BFFEE700BFFEE7704756
:100220007047704710B503F0E4FD03F022FF03F0C0
:10023000FBFD10BD10B5012001F0FEFB28B103F05D
:1002400073FE03F03AF903F0B3FE10BD10B5044697
:10025000C649601A8C422FD009DCC548204480B1C1
:10026000B0F5806F16D0B0F5006F4AD11BE0B0F545
:10027000806F2AD0B0F5006F30D0B0F5406F40D11C
:1002800035E00121042000F0FFFA0021042000F0F5
:10029000FBFA37E00121082000F0F6FA00210820DF
:1002A00000F0F2FA2EE00121102000F0EDFA00211A
:1002B000102000F0E9FA25E00121202000F0E4FA06
:1002C0000021202000F0E0FA1CE00121402000F095
:1002D000DBFA0021402000F0D7FA13E00121802052
:1002E00000F0D2FA0021802000F0CEFA0AE00121CD
:1002F000080200F0C9FA00214FF4807000F0C4FA3F
:1003000000E000BF00BF10BD10B50121084600F09D
:10031000BBFA0021012000F0B7FA10BD2DE9F04131
:10032000024600250026002000230024002791F823
:1003300003C00CF00F0591F803C00CF0100CBCF1D9
:10034000000F03D091F802C04CEA050591F800C0F7
:10035000BCF1000F31D0146800202BE04FF0010CED
:100360000CFA00F3B1F800C00CEA03069E4220D15B
:1003700083004FF00F0C0CFA03F7BC4305FA03FCA3
:100380004CEA040491F803C0BCF1280F06D14FF0E9
:10039000010C0CFA00FCC2F814C00AE091F803C08A
:1003A000BCF1480F05D14FF0010C0CFA00FCC2F86B
:1003B00010C0401C0828D1D31460B1F800C0BCF1B3
:1003C000FF0F34DD546800202EE000F1080C4FF0E0
:1003D000010808FA0CF3B1F800C00CEA03069E42CB
:1003E00021D183004FF00F0C0CFA03F7BC4305FA40
:1003F00003FC4CEA040491F803C0BCF1280F05D1BA
:1004000000F1080C08FA0CF8C2F8148091F803C047
:10041000BCF1480F07D100F1080C4FF0010808FAB1
:100420000CF8C2F81080401C0828CED35460BDE8F8
:10043000F0814FF6FF710180022181700421C170AB
:1004400070470246002093680B400BB1012000E08A
:10045000002070470146886880B27047024600203D
:10046000D3680B400BB1012000E00020704701462B
:10047000C86880B2704701617047416170470AB136
:10048000016100E041617047C16070474FF4803204
:100490000A43826181618261826982697047024692
:1004A0000020344B18684FF68073184040EA021061
:1004B0000843304B186070472F49C8617047F0B54A
:1004C0000A4600230024002100252A4E7168C0F34B
:1004D000034583B200F44016B6F5401F08D121F061
:1004E0007061244E766826F07066224F7E6012E0BE
:1004F00000F48016B6F5801F06D1032606FA05F42F
:10050000A14341F0706106E0460D360103FA06F69C
:10051000B14341F0706122B1460D360103FA06F68F
:100520003143144E7160F0BD30B500228B071C0FB3
:100530000F2303FA04F20F4B08338C1053F82430C6
:1005400093430C4C08348D1044F8253023468C100E
:1005500053F824308C07240F00FA04F42343054C8D
:1005600008348D1044F8253030BD000000140140DF
:1005700000F8FEBF0000014000002042DE48006895
:1005800040F00100DC49086008464068DB4908404B
:10059000D949486008460068D9490840D6490860EA
:1005A0000846006820F4802008600846406820F46F
:1005B000FE004860002088607047CF49096821F438
:1005C0008031CD4A11601146096821F48021116003
:1005D000B0F5803F03D0B0F5802F0ED106E0C649BC
:1005E000096841F48031C44A116007E0C2490968D2
:1005F00041F4A021C04A116000E000BF00BF704775
:1006000010B501460022002300204A11012A02D120
:10061000B94C236806E0022A02D1B74C236A01E0F4
:10062000B54C636A01F01F02012494401C400CB1D8
:10063000012000E0002010BD38B50020009000240B
:10064000002500BF3120FFF7DBFF05460098401C66
:1006500000901DB90098B0F5A06FF3D13120FFF7DD
:10066000CFFF08B1012400E00024204638BD014638
:100670000020A14A106820F0F80040EAC100106094
:100680007047A04908607047024600209A4B58689E
:1006900020F47C1042EA01031843974B58607047DE
:1006A00098490866704701460020934A506820F038
:1006B00003000843506070478F48406800F00C000A
:1006C0007047014600208C4A506820F0F000084333
:1006D0005060704701460020874A506820F4E0606F
:1006E00008435060704701460020834A506820F458
:1006F000605040EAC1005060704729B17E4A527A8A
:1007000002437D4B5A7204E07B4A527A82437A4B11
:100710005A7270477B49D831086070470146002003
:10072000754A506820F440400843506070470021EB
:10073000714A20321170704A82F82010012802D0CC
:1007400004280AD104E001216B4A2032117005E02F
:100750000521694A2032117000E000BF00BF7047D8
:100760006949086070476449096A0143624A116235
:100770007047654944390860704730B50021002250
:10078000002400235C4D6D6805F00C0121B10429A3
:1007900005D0082923D105E05C4D056022E05B4DC2
:1007A00005601FE0544D6D6805F47012022505EBDD
:1007B0009242514D6D6805F480341CB9544D554337
:1007C00005600BE04C4D6D6805F400351DB1504DD2
:1007D0005543056002E04D4D5543056002E04B4D29
:1007E000056000BF00BF444D6D6805F0F0010909C8
:1007F000484D6B5C0568DD4045603F4D6D6805F414
:10080000E061090A434D6B5C4568DD4085603A4D07
:100810006D6805F46051C90A3E4D6B5C4568DD406A
:10082000C560354D6D6805F44041890B3A4D6B5CF0
:10083000C568B5FBF3F5056130BD29B12E4A526993
:1008400002432D4B5A6104E02B4A526982432A4BE2
:100850005A61704729B1284A92690243264B9A612E
:1008600004E0254A92698243234B9A61704729B17B
:10087000214AD2690243204BDA6104E01E4AD26960
:1008800082431D4BDA61704729B11B4AD26802438B
:10089000194BDA6004E0184AD2688243164BDA60DA
:1008A000704729B1144A12690243134B1A6104E0DC
:1008B000114A12698243104B1A617047124940393C
:1008C000086070470F49C86470470B49C87170478A
:1008D0000948406A40F08070074948627047014605
:1008E0000020054A92680A400AB1012000E0002079
:1008F0007047014988727047001002400000FFF8FD
:10090000FFFFF6FE000042428004424200127A00DD
:1009100000093D00000000201000002010B5044632
:10092000F749601A8C4245D00CDCB4F1804F1DD0E1
:10093000F448204418B3B0F5806F29D0B0F5006FAB
:1009400054D12EE0B0F5806F3DD0B0F58E3F03D08E
:10095000B0F5923F4AD13FE00121C802FFF794FF72
:1009600000214FF40060FFF78FFF40E001210846AF
:10097000FFF797FF00210120FFF793FF37E00121E8
:100980000220FFF78EFF00210220FFF78AFF2EE0F2
:1009900001210420FFF785FF00210420FFF781FFDC
:1009A00025E001210820FFF77CFF00210820FFF748
:1009B00078FF1CE001211020FFF773FF00211020B9
:1009C000FFF76FFF13E001212020FFF76AFF0021EE
:1009D0002020FFF766FF0AE001214803FFF754FFDC
:1009E00000214FF40050FFF74FFF00E000BF00BFB1
:1009F00010BD028802F08F020280CA884B881A4319
:100A000003881A4302808A8882850A880285BE4A42
:100A1000904202D0BD4A904201D10A7A0286012258
:100A20008282704770B5002400220023058C4FF6A7
:100A3000FE7635400584028C8388048B4FF68F75D3
:100A40002C400D882C43751E2A400D892A434D8861
:100A50002A43CD888586AC4DA84202D0AB4DA84232
:100A600013D14FF6F7752A404D892A434FF6FB758F
:100A70002A408D882A4347F6FF652B4047F6FF55ED
:100A80002B408D892B43CD892B43838004830284A3
:100A900070BD70B5002400220023058C4FF6EF7660
:100AA00035400584028C8388048B48F6FF752C4002
:100AB0000D884FF6FF7606EA05252C434FF6DF75C5
:100AC0002A400D8906EA05152A434D8806EA0515D0
:100AD0002A43CD8805878C4DA84202D08B4DA84271
:100AE0001DD14FF67F752A404D894FF6FF7606EAF5
:100AF00005152A434FF6BF752A408D8806EA05156D
:100B00002A4347F6FF352B4047F2FF752B408D896E
:100B100006EA85052B43CD8906EA85052B438380AC
:100B20000483028470BD70B5002400220023058C6C
:100B30004FF6FF6635400584028C8388848B4FF620
:100B40008F752C400D882C434FF6FF552A400D8998
:100B50004FF6FF7606EA05252A434D8806EA052565
:100B60002A43CD888587684DA84202D0674DA842A8
:100B70001DD14FF2FF752A404D894FF6FF7606EAE8
:100B800005252A434FF6FF352A408D8806EA0525BC
:100B90002A4346F6FF752B4045F6FF752B408D899D
:100BA00006EA05152B43CD8906EA05152B438380FC
:100BB0008483028470BD70B5002400220023058C5C
:100BC0004EF6FF7635400584028C8388848B48F688
:100BD000FF752C400D884FF6FF7606EA05252C435D
:100BE0004DF6FF752A400D8906EA05352A434D88E2
:100BF00006EA05352A43CD88A0F84050424DA84268
:100C000002D0424DA84207D1C3F30D038D894FF6A0
:100C1000FF7606EA85152B4383808483028470BDAA
:100C2000828B4FF2FF331A408283828B4FF6FF7321
:100C300003EA01231A4382837047F0B50C46154638
:100C4000002100220026078C4EF6FF7C07EA0C07E5
:100C50000784818B028C4FF6FF7707EA043640F653
:100C6000FF4739404FF6FF7707EA05274FF6FF7C2D
:100C70000CEA033C47EA0C0739434DF6FF773A404C
:100C800046F480573A4381830284F0BD828B4FF64D
:100C9000F3731A408283828B0A4382837047F0B5D4
:100CA0000C461546002100220026078C4FF6FF6CEB
:100CB00007EA0C070784818B028C4FF6FF7707EA5F
:100CC00004264FF60C7739404FF6FF7707EA0317F3
:100CD0002F4339434FF6FF573A4046F480773A4363
:100CE00081830284F0BD028B4FF2FF331A400283EE
:100CF000028B4FF6FF7303EA01231A430283704706
:100D00000010004000FCFFBF002C014000340140F7
:100D1000F0B50C461546002100220026078C4FF640
:100D2000EF7C07EA0C070784018B028C4FF6FF77F4
:100D300007EA041640F6FF4739404FF6FF7707EA07
:100D4000033739434FF6FF7707EA052739434FF654
:100D5000DF773A4046F010073A4301830284F0BD42
:100D6000028B4FF6F3731A400283028B0A4302830D
:100D70007047F0B50C46154600210022068C4FF650
:100D8000FE773E400684018B028C4FF60C76314094
:100D90007E1C06EA03162E4331437E1E324044F089
:100DA0000106324301830284F0BD70B505460C464E
:100DB000208850B92389A28861882846FFF7D9FF87
:100DC000E1882846FFF7CCFF25E0208804280AD1D7
:100DD0002389A28861882846FFF79AFFE188284680
:100DE000FFF781FF17E0208808280AD12389A2880D
:100DF00061882846FFF753FFE1882846FFF746FF42
:100E000009E02389A28861882846FFF716FFE18858
:100E10002846FFF705FF70BD2DE9F04105460C4659
:100E200000260127608808B9022600E00026A08875
:100E3000012801D1022700E001272088A0B92389D9
:100E4000A28861882846FFF794FFE1882846FFF7CB
:100E500087FF23893A4631462846FFF759FFE18844
:100E60002846FFF740FF13E02389A28861882846BF
:100E7000FFF74EFFE1882846FFF735FF23893A4602
:100E800031462846FFF775FFE1882846FFF768FFDF
:100E9000BDE8F0810A884B881A438B881A43CB88B7
:100EA0001A430B891A434B891A438B891A43A0F8BA
:100EB000442070474FF6FF71818000210180C1807E
:100EC0004180017270470021018041808180C18092
:100ED000018141818181C181704700210180418070
:100EE000012181800021C1800181704700210180A2
:100EF00041808180C180018141818181704721B120
:100F0000028842F00102028004E0028840F2FE33CF
:100F10001A400280704731B1B0F8442042F40042D8
:100F2000A0F8442005E0B0F84420C2F30E02A0F877
:100F3000442070471AB183890B43838102E083897F
:100F40008B43838170478182704741EA0203A0F896
:100F5000483070471AB183890B43838102E083894B
:100F60008B438381704701894FF6F87211400181EC
:100F700070470A46002101894FF68F7319401143CB
:100F80000181704730B504460D4629462046FFF7DB
:100F9000F0FF208940F00700208130BD2DE9F041AD
:100FA00004460D4616461F46602D06D13B460122DB
:100FB00031462046FFF7ACFE05E03B4601223146B4
:100FC0002046FFF7D6FE29462046FFF7D2FF2089AC
:100FD00040F007002081BDE8F08170B50C4600218B
:100FE0000189C9B244EA02054FF6FF7606EA0326F4
:100FF00035432943018170BD2DE9F04105460E4678
:1010000017469846002443463A4631462846FFF79D
:10101000E4FF2C894FF6F870044044F007044FF6C3
:101020008F70044044F070042C81BDE8F081F0B56D
:1010300004460D4616461F463B4632462946204684
:10104000FFF7CBFF208940F480402081F0BD01856F
:10105000828270470A460021018840F28F3319408E
:10106000114301807047F0B50C4615461E4600211D
:10107000002200230189028B038C4FF6F877394058
:1010800021434FF6FC473A4040F201173A434FF6EE
:10109000DD773B404FF6FF7707EA06172F433B43C8
:1010A000018102830384F0BD0A460021018B4FF6C3
:1010B0008F7319401143018370470A460021018B49
:1010C00048F6FF7319404FF6FF7303EA02231943F2
:1010D000018370470A460021818B4FF68F731940B8
:1010E0001143818370470A460021818B48F6FF73C4
:1010F00019404FF6FF7303EA0223194381837047B7
:1011000021B1028842F08002028004E0028840F2AD
:101110007F331A400280704721B1828842F0040276
:10112000828004E082884FF6FB731A408280704709
:1011300021B1828842F00802828004E082884FF662
:10114000F7731A408280704721B1828842F0010211
:10115000828004E082884FF6FE731A4082807047D6
:101160000A460021018B4FF6F773194011430183A2
:1011700070470A460021018B4FF2FF7319404FF66A
:10118000FF7303EA02231943018370470A460021D3
:10119000818B4FF6F77319401143818370470A46DC
:1011A0000021818B4FF2FF7319404FF6FF7303EA62
:1011B00002231943818370470A460021018B4FF6B1
:1011C000FB7319401143018370470A460021018BCC
:1011D0004FF6FF3319404FF6FF7303EA022319431A
:1011E000018370470A460021818B4FF6FB7319403B
:1011F0001143818370470A460021818B4FF6FF33EC
:1012000019404FF6FF7303EA0223194381837047A5
:101210000A460021018B4FF67F7319401143018369
:1012200070470A460021018BC1F30E014FF6FF7390
:1012300003EA02231943018370470A460021818B88
:101240004FF67F7319401143818370470A4600218E
:10125000818BC1F30E014FF6FF7303EA022319439A
:10126000818370470A460021018C4FF6FD731940B7
:101270001143018470470A460021018C4FF6F77331
:1012800019401143018470470A460021018C4FF632
:10129000DF7319404FF6FF7303EA02131943018409
:1012A00070470A460021018C4FF67F7319404FF6B4
:1012B000FF7303EA02131943018470470A460021B1
:1012C000018C4FF6FF5319404FF6FF7303EA0223D8
:1012D0001943018470470A460021018C4FF2FF73C5
:1012E00019404FF6FF7303EA022319430184704744
:1012F0000A460021018C4DF6FF7319404FF6FF732B
:1013000003EA023319430184704710B5038C0124AA
:101310008C40A3430384038C02FA01F4A4B2234358
:10132000038410BD10B5038C04248C40A3430384B4
:10133000038C02FA01F4A4B22343038410BD30B538
:10134000038C01248C40A343038409B1082918D1DC
:1013500000F1180303EB61031B684FF68F74234001
:1013600000F1180404EB6104236000F1180303EB9F
:1013700061031B68134300F1180404EB610423604C
:101380001FE00B1FC3F34E0400F118031B5948F66E
:10139000FF7423400C1FC4F34E0500F11804635181
:1013A0000B1FC3F34E0400F118031B594FF6FF74D3
:1013B00004EA022423430C1FC4F34E0500F1180471
:1013C000635130BD21B1028842F00202028004E084
:1013D000028840F2FD331A400280704721B1028832
:1013E00042F00402028004E0028840F2FB331A401B
:1013F0000280704721B1828842F08002828004E03E
:1014000082884FF67F731A4082807047028840F2CC
:10141000F7331A40028002880A43028070478288AC
:101420004FF68F731A40828082880A438280704709
:1014300002894FF6F8731A40028102890A43028139
:10144000704702894FF67F731A40028102890A436E
:10145000028170478184704781857047818670471B
:101460000187704781877047A0F840107047028855
:10147000D2B2028002880A43028070470146888EF9
:1014800070470146088F70470146888F70470146B4
:10149000B1F8400070470146888C70470146088DBE
:1014A000704702460020138A0B400BB1012000E078
:1014B00000207047CA430282704730B502460020C0
:1014C00000230024158A05EA0103958905EA010431
:1014D00013B10CB1012000E0002030BDCA430282EC
:1014E0007047000010B50446D749601A8C422BD0D3
:1014F00006DCD648204498B1B0F5806F38D119E0A9
:10150000B0F5806F2AD0B0F56C4F31D1012188033E
:10151000FFF7BAF900214FF48040FFF7B5F928E052
:1015200001214804FFF7BDF900214FF40030FFF717
:10153000B8F91EE001218804FFF7B3F900214FF448
:101540008020FFF7AEF914E00121C804FFF7A9F9E4
:1015500000214FF40020FFF7A4F90AE0012108055B
:10156000FFF79FF900214FF48010FFF79AF900E090
:1015700000BF00BF10BD2DE9F04786B005460E46FE
:101580000024A24600BF00BF00272F462C8A4CF63D
:10159000FF700440F08804432C82AC894EF6F310AF
:1015A0000440B08831890843718908430443AC8101
:1015B000AC8A4FF6FF400440B0890443AC8201A8D6
:1015C000FFF7DBF8A248874202D1DDF810A001E066
:1015D000DDF80CA00AEBCA0000EB0A1031688900A4
:1015E000B0FBF1F86420B8FBF0F00401200964219D
:1015F00001FB1089322000EB0910B0FBF1F000F084
:101600000F0004432C8106B0BDE8F0874FF416515B
:10161000016000218180C18001810C214181002174
:101620008181704710B502460020108A4FF2FF03F7
:1016300018400B884C8823438C882343CC88234351
:101640001843108210BD0021018041808180C1803B
:10165000704721B1828942F40052828104E082897C
:101660004DF6FF731A4082817047F0B5034600249F
:101670000026002500201846C1F3421401F01F0681
:10168000012707FA06F5012C01D10C3004E0022CE9
:1016900001D1103000E014301AB107682F43076001
:1016A00002E00768AF430760F0BD1AB1838A0B43BD
:1016B000838202E0838A8B4383827047028A4FF6DB
:1016C000F0731A400282028A0A43028270478289BA
:1016D0004FF2FF731A40828182890A4382817047E8
:1016E00021B1828942F00202828104E082894FF6B0
:1016F000FD731A4082817047028A4FF6DF731A40E9
:101700000282028A0A430282704721B1028A42F4AD
:101710008042028204E0028A4BF6FF731A40028282
:101720007047C1F308028280704701468888C0F381
:1017300008007047818941F0010181817047028B67
:10174000D2B20283028B42EA012202837047028BEB
:1017500002F47F420283028B0A430283704721B165
:10176000828A42F02002828204E0828A4FF6DF738E
:101770001A408282704721B1828A42F0100282822E
:1017800004E0828A4FF6EF731A408282704721B1DB
:10179000828A42F00802828204E0828A4FF6F7735E
:1017A0001A4082827047828A4FF6FB731A40828207
:1017B000828A0A438282704721B1828A42F0020201
:1017C000828204E0828A4FF6FD731A40828270475B
:1017D0000246002013880B400BB1012000E00020DE
:1017E0007047CA430280704770B502460B4600241A
:1017F000002100250020C3F3421503F01F0101263C
:1018000006FA01F1012D02D19689314006E0022D40
:1018100002D1168A314001E0968A31401C1201261D
:1018200006FA04F41688344011B10CB1012000E02E
:10183000002070BD10B5002200230A12012494403C
:10184000A3B2DC43048010BD004C004000BCFFBFCD
:101850000038014031490143314A1160704770B589
:10186000002100230F22C47804B32D4C246804F413
:10187000E064C4F5E064210AC1F10403CA4044787D
:1018800004FA03F18478144021430901254C0678B9
:10189000A155047804F01F050124AC4005786D11B2
:1018A000AD0005F1E025C5F8004109E0047804F039
:1018B0001F050124AC401C4D0678761145F82640E2
:1018C00070BD1A4A0A400243154B1B1F1A6070472D
:1018D00039B1134A121D12680243114B1B1D1A60C5
:1018E00006E00F4A121D126882430D4B1B1D1A6041
:1018F0007047042808D14FF0E021096941F0040144
:101900004FF0E022116107E04FF0E021096921F07A
:1019100004014FF0E0221161704700000000FA0559
:101920000CED00E000E400E080E100E080FFFF1F3C
:1019300000204C490860091D0860091D0860091D48
:101940000860494847491431086070478179002987
:1019500046D04449096802689143424A1160111D0A
:101960000968026891433F4A121D116001793F4A9C
:101970001144D1F800140268114302793B4B1A4418
:10198000C2F8001437490831096802689143354AA2
:1019900008321160111D096802689143314A0C3206
:1019A0001160417910290ED1111F09680268114395
:1019B0002C4A08321160111D096802681143294A36
:1019C0000C32116018E04179284A1144D1F8001412
:1019D000026811434279254B1A44C2F800140BE007
:1019E0000179224A1144D1F8001402689143027926
:1019F0001E4B1A44C2F800147047002101600171A7
:101A00000C2141710021817170471649103109681C
:101A10000143144A10321160704701460020114AF8
:101A2000143212680A400AB1012000E00020704719
:101A30000C49143108607047014600200022094B10
:101A40001B6803EA0102074B14331B680B4013B1F8
:101A50000AB1012000E000207047024914310860FB
:101A60007047000000040140FFFF07000000014034
:101A70000CB50020019000904748006840F4803089
:101A80004549086000BF4448006800F400300090F9
:101A90000198401C0190009818B90198B0F5A06F0A
:101AA000F1D13D48006800F4003010B101200090F1
:101AB00001E0002000900098012844D137480068D8
:101AC00040F01000354908600846006820F0030027
:101AD00008600846006840F0020008602E48406830
:101AE0002D4948600846406848600846406840F410
:101AF000806048600846406820F47C1048600846D2
:101B0000406840F4E81048600846006840F0807083
:101B1000086000BF2048006800F000700028F9D07D
:101B20001D48406820F003001B4948600846406893
:101B300040F00200486000BF1748406800F00C0009
:101B40000828F9D101E000BFFEE70CBD10B5FFF792
:101B50008FFF10BD10B51048006840F001000E491D
:101B60000860084640680E4908400B49486008462E
:101B700000680C490840084908600846006820F4DD
:101B8000802008600846406820F4FE00486000207D
:101B90008860FFF7DBFF10BD00100240002002400C
:101BA0000000FFF8FFFFF6FE10B5FFF7D3FF00F0CF
:101BB000B7F800F025F900F0EAF900F0C9FA01F0F1
:101BC000FBFA01F0A1FC01F0C7FC4AA003F0F2FA15
:101BD00001F0B0FD10BD30B54A4800684FF47A728C
:101BE000B0FBF2F1B1F1807F00D31DE021F07F4026
:101BF000401E4FF0E022506150170F22002807DAF4
:101C000013071D0E404B00F00F04241F1D5503E069
:101C100013071C0E3D4B1C5400BF00204FF0E02268
:101C200090610720106100BF30BD10B56FF0040057
:101C3000FFF75FFE364800683649B0FBF1F03649E1
:101C40000870334800683349B0FBF1F44FF47A7000
:101C500044430120314908804FF0E020006940F002
:101C600002004FF0E021086108464461006940F03D
:101C70000100086110BD70B5034600224FF0E02658
:101C80007569254E367803FB06F400BF4FF0E02659
:101C9000B16910E04FF0E026B06988420BD088426D
:101CA00002D20E1A324402E02E1A0E443244014689
:101CB000A24200D300E0EDE700BF70BD70B504465E
:101CC00016480088844207DB1448008894FBF0F033
:101CD00085B2284602F09CFF1048008894FBF0F182
:101CE00000FB114084B24FF47A7104FB01F0FFF75E
:101CF000C2FF70BDB3F5CABCBBAFB3C9B9A6212141
:101D000021210A00C852000818ED00E000E400E0BC
:101D10001400002000127A00180000201A00002091
:101D200008B501211020FEF795FD01210820FEF7DE
:101D300091FD1820ADF8000010208DF8030003205D
:101D40008DF8020069460C48FEF7E8FA0120ADF86C
:101D5000000010208DF8030003208DF80200694672
:101D60000648FEF7DBFA18210348FEF784FB012141
:101D70000248FEF780FB08BD00100140000C014046
:101D800008B54FF4E060FFF765FD1C208DF80000FA
:101D900000208DF8010003208DF8020001208DF84D
:101DA00003006846FFF75BFD08BD10B501218807F9
:101DB000FFF783FB18B101218807FFF78FFB10BDE8
:101DC0000EB501210846FEF752FD4FF08040FEF7A8
:101DD000A5FD4FF6FF70ADF8040040F26710ADF8B6
:101DE00000000020ADF80600ADF8020069464FF093
:101DF0008040FEF7FEFD01218807FFF75BFB0EBD6B
:101E000010B5FFF7DDFFFFF7BBFF10BD06E00021B7
:101E100001E04A1CD1B24829FBDB401E0028F6DC59
:101E200070472DE9F84307460C4615461E46DDF877
:101E3000208001214046FEF70DFDADF80040102046
:101E40008DF8030003208DF8020069463846FEF73E
:101E500065FAADF8006004208DF8030003208DF8CA
:101E6000020069462846FEF759FABDE8F8832DE9D5
:101E7000F04106460D4600BF06EB860000EB001061
:101E800040004FF4FA6190FBF1F4E21704EB1262A8
:101E90001212A4EB0222E31704EB13631B1203EBF1
:101EA000C30707EB031302EB8304072D2FD2DFE8F0
:101EB00005F02E040B1219202700A2B203230421DF
:101EC0000A2000F07BFE22E0A2B20323042150206E
:101ED00000F074FE1BE0A2B203230521502000F0A5
:101EE0006DFE14E0A2B203230621502000F066FE2E
:101EF0000DE0A2B2032306210A2000F05FFE06E0F7
:101F0000A2B2032305210A2000F058FE00BF00BF43
:101F1000BDE8F0812DE9F04706460F4614461D4600
:101F2000DDF8208039463046FEF7A5FA1420FFF789
:101F30006DFF39463046FEF7A0FA00BF294620461D
:101F4000FEF77FFA0028F9D001218807FEF7D7FFB6
:101F500000BF29462046FEF774FA0028F9D1002177
:101F60004FF08040FEF7CBFF4FF08040FFF793FA31
:101F700081464146FFF77BFF00214FF08040FFF78D
:101F800069FA4FF47A70FFF741FFBDE8F08708B5B2
:101F90002020C301344A010200901046FFF741FFA0
:101FA0004FF480704023314A802100901046FFF7A3
:101FB00038FF802043012E4A810100901046FFF730
:101FC00030FF8020C3012A4A010200901046FFF72B
:101FD00028FF4FF490704FF48043244AD1140090AE
:101FE0002148FFF71EFF4FF4807020231F4A410154
:101FF00000901046FFF715FF08BD08B50120030348
:10200000194A410300901046FFF784FF0220402345
:10201000164A802100901046FFF77CFF03204FF402
:102020008053134A511400901046FFF773FF0420A9
:1020300003030F4A410300901046FFF76BFF052092
:102040004FF48043094AD11400900748FFF762FF1C
:1020500006202023054A511400901046FFF75AFF2E
:1020600004A003F0A7F808BD0014014000200140BF
:10207000001C0140B3ACC9F9B2A8BBF1C8A1BEE0D5
:10208000C0EBB3C9B9A60A0000B585B0012144F27E
:102090000400FEF7DFFB4FF40070ADF810001820CD
:1020A0008DF8130003208DF8120004A93F48FEF7B5
:1020B00035F94FF48060ADF8100004208DF813005E
:1020C00004A93A48FEF72AF94FF4E13000900020C5
:1020D000ADF80400ADF80600ADF80800ADF80C004E
:1020E0000C20ADF80A0069463148FFF744FA012296
:1020F00040F225512E48FFF7B8FA01212C48FFF78E
:10210000A8FA05B000BD08B54FF4E060FFF7A2FBE8
:1021100025208DF8000001208DF8010000208DF8A9
:10212000020001208DF803006846FFF798FB08BD08
:1021300010B540F225511E48FFF756FB38B11C4838
:10214000001D0088C4B221461AA003F033F810BD68
:1021500010B5FFF799FFFFF7D6FF10BD70B5044625
:102160000D46E1B21248FFF7DCFA00BF10480088C4
:1021700000F080000028F9D0204670BD70B50546FB
:1021800003200D490870FC20487008468570FC202B
:10219000C87003200871002405E00748015D05A010
:1021A00003F008F8641C052CF7DB70BD0008014043
:1021B00000380140256300001C00002070B5044673
:1021C00008256902FE48FEF756F900BF00BF4FF42C
:1021D0000041FB48FEF751F900BF00BF1AE004F0D0
:1021E000800028B14FF48041F548FEF744F904E03F
:1021F0004FF48041F248FEF740F94FF40041F048B7
:10220000FEF739F900BF4FF40041ED48FEF735F90C
:102210006006040E2800A5F10101CDB2DFD170BD2A
:1022200070B5044608256902E548FEF726F929033A
:10223000E348FEF722F91AE004F0800028B14FF4D9
:102240008041DF48FEF717F904E04FF48041DC4895
:10225000FEF713F94FF40041D948FEF70CF900BF1F
:102260004FF40041D648FEF708F96006040E280036
:10227000A5F10101CDB2DFD170BD70B504460D46A8
:1022800005F1B001C8B2FFF7CBFF102141EA1410ED
:10229000FFF7C6FF04F00F0141F00100FFF7C0FF98
:1022A00070BD70B50646002415E004F1B001C8B257
:1022B000FFF7B6FF0120FFF7B3FF1020FFF7B0FFD5
:1022C000002504E03046FFF779FF681CC5B2802D79
:1022D000F8DB601CC4B2082CE7DB70BD70B50024CD
:1022E00015E004F1B001C8B2FFF79AFF0120FFF733
:1022F00097FF1020FFF794FF002504E00020FFF770
:102300005DFF681CC5B2802DF8DB601CC4B2082CD0
:10231000E7DB70BD70B5044604F1B001C8B2FFF749
:102320007FFF0120FFF77CFF1020FFF779FF0025DA
:1023300004E00020FFF742FF681CC5B2802DF8DBE7
:1023400070BD07E040F2375100BF0A00A1F1010162
:10235000FBD1401E0028F5D1704710B50446204639
:10236000FFF75EFF10BD70B504462546E11704EB8C
:1023700011710911A4EB0111C8B2FFF751FF2546F5
:10238000E11704EB117109111031C8B2FFF748FFD2
:1023900070BD10B504462020FFF742FF2046FFF72E
:1023A0003FFF10BD70B505460C462120FFF738FFF2
:1023B0002846FFF735FF2046FFF732FF70BD70B5A6
:1023C00005460C462220FFF72BFF2846FFF728FF83
:1023D0002046FFF725FF70BD10B5044644F04000CD
:1023E000FFF71EFF10BD10B504468120FFF718FF50
:1023F0002046FFF715FF10BD10B504468D20FFF7EE
:102400000FFF44F01000FFF70BFF10BD10B504469E
:1024100044F0A000FFF704FF10BD10B5044644F0DF
:10242000A400FFF7FDFE10BD10B5044644F0A60061
:10243000FFF7F6FE10BD10B50446A820FFF7F0FE2A
:102440002046FFF7EDFE10BD10B5044644F0AE0087
:10245000FFF7E6FE10BD10B5044644F0B000FFF7EC
:10246000DFFE10BD10B5044644F0C000FFF7D8FEF3
:1024700010BD10B50446D320FFF7D2FE2046FFF76B
:10248000CFFE10BD10B50446D520FFF7C9FE20468B
:10249000FFF7C6FE10BD10B50446D920FFF7C0FEF9
:1024A0002046FFF7BDFE10BD10B50446DA20FFF749
:1024B000B7FE44F00200FFF7B3FE10BD10B50446AE
:1024C000DB20FFF7ADFE2046FFF7AAFE10BD10B5DA
:1024D000E320FFF7A5FE10BD08B501210820FEF797
:1024E000B9F94FF47040ADF8000003208DF80200F8
:1024F00010208DF8030069463148FDF70FFF4FF4B7
:1025000000412F48FDF7B7FF4FF400512C48FDF76D
:10251000B4FF3220FFF715FF4FF400512848FDF7B4
:10252000AAFF0020FFF790FF8020FFF7ABFF3F20BE
:10253000FFF781FF0020FFF79CFF0020FFF74CFF13
:102540000420FFF759FF0220FFF723FF0120FFF7C8
:102550005DFF0820FFF786FF1020FFF7A5FFCF20C3
:10256000FFF741FFF120FFF796FF4020FFF7A6FF9E
:102570000020FFF752FF0020FFF756FF0120FFF772
:1025800063FF0020FFF78DFE00210846FFF775FE70
:1025900008BD70B505460C4621462846FFF76DFE7E
:1025A0002046E11704EB5171C910A4EBC1020121CF
:1025B0009140CEB2B02101EBE401C8B202E00000CC
:1025C000000C0140FFF72CFE102141EA1510FFF727
:1025D00027FE05F00F00FFF723FE3046FFF7EEFD64
:1025E00070BD2DE9F04707460C4690461D46DDF8C4
:1025F00020A0E1103846FFF740FE3E4613E0A1461A
:10260000E11704EB5171C910A4EBC1020121914003
:10261000C8B2FFF7D3FDBAF1010F02D13220FFF7A4
:1026200090FE701CC6B24645E9DDE9103846FFF75A
:1026300024FE3E4613E0A946E91705EB5171C91087
:10264000A5EBC10201219140C8B2FFF7B7FDBAF175
:10265000010F02D10520FFF774FE701CC6B246457B
:10266000E9DDBDE8F0872DE9F047044688461546C8
:102670004FF000090026002720E0E85D203800F038
:10268000FF097E2C04DD002408F1010000F0FF08A2
:1026900041462046FFF7F1FD002609E009EB49011C
:1026A000F94A02EB4101885DFFF788FD701CC6B254
:1026B000062EF3DBA01DC4B2781CC7B2E85D00286B
:1026C000DBD1BDE8F0872DE9F04706460F4690467E
:1026D00000250024A14631E018F809002038C5B2D1
:1026E000782E02DD0026781CC7B239463046FFF747
:1026F000C4FD002407E004EB0511E44A505CFFF739
:102700005DFD601CC4B2082CF5DB781CC1B23046FC
:10271000FFF7B3FD002408E004EB05110831DB4AA4
:10272000505CFFF74BFD601CC4B2082CF4DB06F1D3
:102730000800C6B209F1010000F0FF0918F809000D
:102740000028C9D1BDE8F0872DE9F04706460D46BF
:102750009146002400274FF001084AE000244FF082
:102760000108762E02DD0026681CC5B229463046D7
:10277000FFF783FDB8F1010F19D029463046FFF766
:102780007CFD002403E008F10108601CC4B20E2C9B
:10279000F9DB681CC1B23046FFF76FFD002403E08F
:1027A00008F10108601CC4B20E2CF9DB1CE0781C97
:1027B000C7B229463046FFF760FD002404E0002040
:1027C000FFF7FCFC601CC4B2102CF8DB681CC1B223
:1027D0003046FFF752FD002404E00020FFF7EEFC36
:1027E000601CC4B2102CF8DB06F10E00C6B2B81C97
:1027F000C7B219F807000028B0D1BDE8F087F8B5D6
:1028000006460F461546002427E0285D7F2814DD84
:10281000285D8DF80000601C285C8DF80100002008
:102820008DF802006A4639463046FFF78DFF06F103
:102830000E00C6B2A01CC4B20FE0285D8DF80000E7
:1028400000208DF801006A4639463046FFF73BFF0D
:1028500006F10800C6B2601CC4B2285D0028D4D1BD
:10286000F8BD2DE9F05F06460F4690461C46DDF8A0
:1028700028A04FF0000BE11704EB5171C910A4EB35
:10288000C10131B92046E11704EB5171C1F3C7050D
:1028900006E02046E11704EB5171C910491CCDB286
:1028A0003D4614E029463046FFF7E7FCB1460AE012
:1028B00059460BF1010B1AF80100FFF77FFC09F1F3
:1028C000010000F0FF09C145F2DB681CC5B2A5425A
:1028D000E8DDBDE8F09F2DE9F04104460D461746BE
:1028E0004FF000080026A7F120004FFA80F87A2C5C
:1028F00002DD0024681C45B2E9B2E0B2FFF7BDFC7E
:10290000002609E008EB48015F4A02EB4101885DBF
:10291000FFF754FC701C46B2062EF3DBBDE8F081D5
:102920002DE9F04705460E461446002C06DA2D2206
:1029300071B268B2FFF7CFFF604244B2642094FBEB
:10294000F0F000F0FF09642094FBF0F100FB11406F
:102950000A2190FBF1F000F0FF080A2094FBF0F14F
:1029600000FB1140C7B209F1300042B271B2A81D9C
:1029700040B2FFF7B0FF08F1300042B271B205F18A
:102980000C0040B2FFF7A7FF07F1300042B271B26E
:1029900005F1120040B2FFF79EFFBDE8F0872DE978
:1029A000F05F05460E461446002C06DA2D2271B261
:1029B00068B2FFF790FF604204B242F2107094FBDD
:1029C000F0F000F0FF0A42F2107094FBF0F100FB0F
:1029D00011404FF47A7190FBF1F000F0FF0B0846C4
:1029E00094FBF0F100FB1140642190FBF1F0C7B2C1
:1029F000642094FBF0F100FB11400A2190FBF1F000
:102A000000F0FF080A2094FBF0F100FB114000F0F9
:102A1000FF09BAF1000F07D00AF1300042B271B2DB
:102A2000A81D40B2FFF757FFBBF1000F08D00BF114
:102A3000300042B271B205F10C0040B2FFF74BFF1B
:102A400047B107F1300042B271B205F1120040B255
:102A5000FFF741FFB8F1000F08D008F1300042B293
:102A600071B205F1180040B2FFF735FFB9F1000F60
:102A700008D009F1300042B271B205F11E0040B237
:102A8000FFF729FFBDE8F09FDC520008045500085D
:102A90002DE9F05F04460D46164699462E2269B28E
:102AA00060B2FFF718FF4FF47A7096FBF0F000F079
:102AB000FF0B4FF47A7096FBF0F100FB116064217C
:102AC00090FBF1F000F0FF0A642096FBF0F100FBB0
:102AD00011600A2190FBF1F000F0FF080A2096FB3C
:102AE000F0F100FB1160C7B2B9F1010F09D0B9F1E3
:102AF000020F0FD0B9F1030F1ED0B9F1040F5AD154
:102B000035E007F1300042B269B2A01D40B2FFF7D4
:102B1000E2FE50E008F1300042B269B2A01D40B2BE
:102B2000FFF7D9FE07F1300042B269B204F10C00A0
:102B300040B2FFF7D0FE3EE00AF1300042B269B287
:102B4000A01D40B2FFF7C7FE08F1300042B269B2E3
:102B500004F10C0040B2FFF7BEFE07F1300042B2B4
:102B600069B204F1120040B2FFF7B5FE23E00BF1A9
:102B7000300042B269B2A01D40B2FFF7ACFE0AF1CC
:102B8000300042B269B204F10C0040B2FFF7A3FE7C
:102B900008F1300042B269B204F1120040B2FFF70E
:102BA0009AFE07F1300042B269B204F1180040B257
:102BB000FFF791FE00BF00BFBDE8F09F2DE9F05F79
:102BC00004460D46164699464FF47A7096FBF0F08F
:102BD00000F0FF0B4FF47A7096FBF0F100FB1160F0
:102BE000642190FBF1F000F0FF0A642096FBF0F105
:102BF00000FB11600A2190FBF1F000F0FF080A20B1
:102C000096FBF0F100FB1160C7B2B9F1010F09D0DA
:102C1000B9F1020F0FD0B9F1030F1ED0B9F1040FB3
:102C20005AD135E007F1300042B269B2A01D40B27E
:102C3000FFF751FE50E008F1300042B269B2A01D2A
:102C400040B2FFF748FE07F1300042B269B204F12A
:102C50000C0040B2FFF73FFE3EE00AF1300042B206
:102C600069B2A01D40B2FFF736FE08F1300042B253
:102C700069B204F10C0040B2FFF72DFE07F13000FD
:102C800042B269B204F1120040B2FFF724FE23E021
:102C90000BF1300042B269B2A01D40B2FFF71BFE3B
:102CA0000AF1300042B269B204F10C0040B2FFF701
:102CB00012FE08F1300042B269B204F1120040B2D3
:102CC000FFF709FE07F1300042B269B204F11800C3
:102CD00040B2FFF700FE00BF00BFBDE8F09F2DE946
:102CE000FF4F87B004460D464FF0060B4FF000092A
:102CF000099802F0C0F90590099802F0BCF900901B
:102D000002F0B0F90190099902F077F9FE490290BA
:102D100002F076F9039002F0C7F90490099802F0E6
:102D2000D7F9FA4AFA4BCDE9020102F0E5F905D2EA
:102D30002D2269B260B2FFF7CEFD04E02B2269B20A
:102D400060B2FFF7C8FD0598002802DA05984042F6
:102D5000059005981FFA80F942F2107099FBF0F087
:102D6000C0B2069042F2107099FBF0F100FB119096
:102D70004FF47A7190FBF1F000F0FF0A084699FBDE
:102D8000F0F100FB1190642190FBF1F000F0FF08DE
:102D9000642099FBF0F100FB11900A2190FBF1F007
:102DA000C6B20A2099FBF0F100FB1190C7B2069859
:102DB00060B30698303042B269B2A01D40B2FFF74E
:102DC0008AFD0AF1300042B269B204F10C0040B24F
:102DD000FFF781FD08F1300042B269B204F1120040
:102DE00040B2FFF778FD06F1300042B269B204F15B
:102DF000180040B2FFF76FFD07F1300042B269B230
:102E000004F11E0040B2FFF766FD67E0BAF1000F63
:102E100025D04FF0050B0AF1300042B269B2A01D77
:102E200040B2FFF758FD08F1300042B269B204F138
:102E30000C0040B2FFF74FFD06F1300042B269B21C
:102E400004F1120040B2FFF746FD07F1300042B234
:102E500069B204F1180040B2FFF73DFD3EE0B8F161
:102E6000000F1CD04FF0040B08F1300042B269B2E1
:102E7000A01D40B2FFF72FFD06F1300042B269B24B
:102E800004F10C0040B2FFF726FD07F1300042B21A
:102E900069B204F1120040B2FFF71DFD1EE09EB1C1
:102EA0004FF0030B06F1300042B269B2A01D40B2F0
:102EB000FFF711FD07F1300042B269B204F10C00D6
:102EC00040B2FFF708FD09E04FF0020B07F13000B8
:102ED00042B269B2A01D40B2FFF7FDFC00BF0A98E4
:102EE000052845D2DFE800F00304162738003FE04C
:102EF0004FF47A710498B0FBF1F080B20BEB4B0108
:102F000004EB41010390C8B229460A9B039AFFF7DC
:102F1000BFFD2DE064210498B0FBF1F080B20BEB13
:102F20004B0104EB41010390C8B229460A9B039A66
:102F3000FFF7AEFD1CE00A210498B0FBF1F080B26F
:102F40000BEB4B0104EB41010390C8B229460A9BED
:102F5000039AFFF79DFD0BE004998AB20BEB4B013E
:102F600004EB4101C8B229460A9BFFF791FD00BF5F
:102F700000BF0BB0BDE8F08F2DE9F04104460D46CF
:102F800016466448B6FBF0F0303047B23A4669B2B4
:102F9000A01D40B2FFF79FFC5E48B6FBF0F100FBBE
:102FA00011605D49B0FBF1F0303047B23A4669B28A
:102FB00004F10C0040B2FFF78EFC5748B6FBF0F16D
:102FC00000FB11605549B0FBF1F0303047B23A4692
:102FD00069B204F1120040B2FFF77DFC4F48B6FB26
:102FE000F0F100FB116042F21071B0FBF1F03030F3
:102FF00047B23A4669B204F1180040B2FFF76BFCE1
:1030000042F21070B6FBF0F100FB11604FF47A71E0
:10301000B0FBF1F0303047B23A4669B204F11E001D
:1030200040B2FFF758FC4FF47A70B6FBF0F100FBAA
:1030300011606421B0FBF1F0303047B23A4669B21A
:1030400004F1240040B2FFF746FC6420B6FBF0F127
:1030500000FB11600A21B0FBF1F0303047B23A4674
:1030600069B204F12A0040B2FFF735FC0A20B6FB32
:10307000F0F100FB1160303047B23A4669B204F11A
:10308000300040B2FFF727FCBDE8F0812DE9F041A8
:1030900004460D46164642F2107096FBF0F03030B2
:1030A00047B23A4669B2A01D40B2FFF714FC42F2A3
:1030B000107096FBF0F100FB11604FF47A7190FBF9
:1030C000F1F0303047B23A4669B204F10C0040B238
:1030D000FFF701FC4FF47A7096FBF0F100FB1160F2
:1030E000642190FBF1F0303047B23A4669B204F106
:1030F000120040B2FFF7EFFB642096FBF0F100FBFB
:1031000011600A210CE0000000401C4648AFBC9A48
:10311000F2D77A3E8096980040420F00A0860100C8
:1031200090FBF1F0303047B23A4669B204F1180032
:1031300040B2FFF7D0FB0A2096FBF0F100FB1160D4
:10314000303047B23A4669B204F11E0040B2FFF790
:10315000C2FBBDE8F0812DE9F04104460D4616465C
:10316000642096FBF0F0303047B23A4669B2A01DB9
:1031700040B2FFF7B0FB642096FBF0F100FB11605A
:103180000A2190FBF1F0303047B23A4669B204F1BF
:103190000C0040B2FFF79FFB0A2096FBF0F100FB0A
:1031A0001160303047B23A4669B204F1120040B2C1
:1031B000FFF791FBBDE8F08110B5FFF78DF9FFF740
:1031C0008DF803A200210846FFF719FB10BD00008F
:1031D000202020202077656C636F6D650000000063
:1031E000F8B506460C46154601212846FDF732FB88
:1031F000ADF8004004208DF8030003208DF8020094
:1032000069463046FDF78AF821463046FDF733F926
:10321000F8BD10B54FF480720821BD48FFF7E0FFFC
:1032200040220821BB48FFF7DBFF40221021B948AC
:10323000FFF7D6FF40220221B648FFF7D1FF4FF437
:1032400080720421B248FFF7CBFF4FF48072102147
:10325000AF48FFF7C5FF10BD70B505460E461446D2
:1032600031462846FDF7EDF801282CD1072C29D24C
:10327000DFE804F028040A10161C22003022042182
:103280000020FFF728FB1DE0302204214620FFF735
:1032900022FB17E0302205214620FFF71CFB11E03E
:1032A000302206214620FFF716FB0BE030220621D4
:1032B0000020FFF710FB05E0302205210020FFF77A
:1032C0000AFB00BF2CE0072C29D2DFE804F0280419
:1032D0000A10161C2200312204210020FFF7FBFAFD
:1032E0001DE0312204214620FFF7F5FA17E03122D4
:1032F00005214620FFF7EFFA11E031220621462092
:10330000FFF7E9FA0BE0312206210020FFF7E3FA8C
:1033100005E0312205210020FFF7DDFA00BF00BFE4
:1033200070BD10B5012208217948FFF795FF0222F0
:1033300008217848FFF790FF032210217548FFF716
:103340008BFF042202217348FFF786FF0522042128
:103350006F48FFF781FF062210216D48FFF77CFFC1
:1033600010BD08B501211020FDF774FA2020ADF83A
:10337000000010208DF8030003208DF8020069463C
:103380006548FCF7CBFF40216348FDF774F808BDA2
:1033900008B52020ADF8000048208DF803006946EC
:1033A0005D48FCF7BBFF08BD08B52020ADF8000064
:1033B00010208DF8030003208DF80200694656485E
:1033C000FCF7ACFF08BD70B50025002424E000BF69
:1033D00020215148FDF735F80028F9D02820FEF7C4
:1033E0004AFC20214C48FDF72CF801280DD100BFE4
:1033F00020214948FDF725F80128F9D0C4F107013B
:1034000001208840C0B2054304E0C4F10701012057
:1034100088408543601CC4B2082CD8DB284670BDA8
:1034200010B50446FFF7C0FF20213B48FDF725F803
:103430001220FEF743FC20213748FDF71CF81E2020
:10344000FEF719FCFFF7A4FF20213348FCF7F9FF32
:1034500080BB00BF20213048FCF7F3FF0028F9D0E3
:1034600000BF20212C48FCF7ECFF0128F9D0FFF722
:10347000AAFF2070FFF7A7FF6070FFF7A4FFA070FE
:10348000FFF7A1FFE070FFF79EFF2071FFF78CFFB1
:1034900020212148FCF7EFFF207861780844A178CB
:1034A0000844E17808442179884201D1012010BD07
:1034B0000020FCE7FFE70020F9E710B51748FFF709
:1034C000AFFF012818D116A202210020FFF7FBF858
:1034D00015A202214620FFF7F6F8104802780323D0
:1034E00019461E20FFF76AFB0C4882780323194611
:1034F0006420FFF763FB02E00220FEF70BFF10BD24
:1035000010B5FFF70EFF10BD10B5FFF782FE10BD1E
:10351000002001400018014000100140210000205F
:1035200074656D3A000000007369643A00000000A1
:1035300008B54FF4C060FEF78DF906208DF8000045
:1035400000208DF801008DF8020001208DF80300A5
:103550006846FEF784F908BD0EB501210520FDF788
:1035600079F9FFF7E5FF0120ADF8080048208DF854
:103570000B0002A90A48FCF7D1FE00210846FCF71F
:10358000D3FF0120009000208DF804000C208DF85E
:10359000050001208DF806006846FEF7D7F90EBD3C
:1035A0000008014008B501214FF48270FDF752F97F
:1035B0000120ADF8000018208DF8030003208DF8DD
:1035C000020069465E48FCF7A9FE0220ADF8000043
:1035D00018208DF8030003208DF802006946584832
:1035E000FCF79CFEC220ADF8000018208DF8030007
:1035F00003208DF8020053A001F0DCFD694652481B
:10360000FCF78CFE51A001F0D5FD8020ADF8000044
:1036100018208DF8030003208DF8020069464A48FF
:10362000FCF77CFE0120ADF8000010208DF80300AF
:1036300003208DF8020069464648FCF76FFE022021
:10364000ADF8000010208DF8030003208DF8020073
:1036500069464048FCF762FE03213E48FCF70BFF39
:1036600008BD00B587B001210220FDF700F9FF2059
:10367000ADF8140040F2CF70ADF810000020ADF8A6
:103680001600ADF8120004A93348FDF7B2F9602026
:10369000ADF800000120ADF802000020ADF80600F2
:1036A0000220ADF808009B20ADF806000120ADF81F
:1036B000020069462848FDF7B5F908212648FDF7BC
:1036C0004FFD9B20ADF806000120ADF802006946D1
:1036D0002148FDF7DEF908211F48FDF74AFD6E205D
:1036E000ADF806000120ADF8020069461A48FDF762
:1036F0001AFA08211848FDF749FD6E20ADF80600BA
:103700000120ADF8020069461348FDF754FA08217C
:103710001148FDF744FD01210F48FDF7F1FC01219F
:103720000D48FDF7ECFB012211460B48FDF702FCAA
:1037300007B000BD10B5FFF735FFFFF792FF10BDD2
:10374000000C01406F6B0A00000801406C616C6165
:103750006C610A000020014000040040FEF73BFAC3
:103760000CE078A001F026FD4FF4FA73012200214D
:10377000084601F07DFA78A001F01CFDF1E7FEF7A4
:103780002AFA05E0C82300221146104601F070FA1B
:10379000F8E7FEF720FAFEF748FA0DE073A001F013
:1037A00009FDFFF7ADFEC82300221146104601F0C7
:1037B0005FFA74A001F0FEFCF0E7FEF70CFA0BE0F4
:1037C00076A001F0F7FC322300221146104601F0EA
:1037D0004FFA76A001F0EEFCF2E7FEF7FCF900BF2D
:1037E00076A001F0E7FCFEF708FC4FF4C873002256
:1037F0001146104601F03CFA75A001F0DBFCEFE742
:10380000FEF7E9F91BE077A001F0D4FC012179482B
:10381000FCF733FE4FF4FA7300221146104601F014
:1038200027FA01217348FCF726FE4FF4FA730022B1
:103830001146104601F01CFA6FA001F0BBFCE2E754
:10384000FEF7C9F91BE070A001F0B4FC102172482A
:10385000FCF713FE4FF4967300221146104601F058
:1038600007FA10216C48FCF706FE4FF4967300220D
:103870001146104601F0FCF968A001F09BFCE2E75C
:10388000FEF7A9F91BE069A001F094FC0821624849
:10389000FCF7F3FD40F2E73300221146104601F039
:1038A000E7F908215C48FCF7E6FD40F2E733002227
:1038B0001146104601F0DCF958A001F07BFCE2E76C
:1038C000FEF789F90A235D4A0021AFF24B0000F0B0
:1038D0003AFE0C235A4A0021AFF29B0000F033FE5F
:1038E0000B23584A0021AFF2E70000F02CFE06231C
:1038F000554A0021AFF21D1000F025FE0823534A5F
:103900000021AFF2491000F01EFE0723504A0021AB
:10391000AFF2811000F017FE05234E4A0021AFF2EE
:10392000A11000F010FE0D234B4A0021AFF2D3107E
:1039300000F009FE05E0642300221146104601F064
:1039400097F9F8E7BDF8C8EB50574DCAE4B3F6C88D
:10395000CECEF10A0A000000CDCBB3F650574DCAC7
:10396000E4B3F6C8CECEF10A0A000000CFB5CDB35D
:10397000BDF8C8EBB4ABB8D0C6F7B2C9BCAFC8CEBF
:10398000CEF10000CFB5CDB3CDCBB3F6B4ABB8D04C
:10399000C6F7B2C9BCAFC8CECEF10000BDF8C8EBC7
:1039A0004F4C4544C8CECEF10A0A0000CDCBB3F649
:1039B0004F4C4544C8CECEF10A0A0000BDF8C8EB12
:1039C000B3ACC9F9B2A8C8CECEF10A0A0000000013
:1039D000CDCBB3F6B3ACC9F9B2A8C8CECEF10A0AC2
:1039E00000000000BDF8C8EB6C656431C8CECEF1B4
:1039F0000A0A0000000C0140CDCBB3F66C656431BF
:103A0000C8CECEF10A0A0000BDF8C8EB6C6564337D
:103A1000C8CECEF10A0A000000100140CDCBB3F6AB
:103A20006C656432C8CECEF10A0A0000BDF8C8EB5E
:103A30006C656432C8CECEF10A0A0000E4020020B0
:103A40002404002064050020A4060020FC080020B7
:103A5000CC100020941100204416002002460020C3
:103A600005E011F8013B02F8013B431CD8B20B788A
:103A7000002BF6D1137070472DE9F04105460E4634
:103A80001446002714B90020BDE8F0811DB90420B8
:103A900020700020F8E71EB90C2020700020F3E70A
:103AA000FD480078002803DD112020700020EBE79E
:103AB0002878012808D0022807D0032802D004283B
:103AC00004D100E000BF00BF00BF03E00120207070
:103AD0000020D9E700BF01F093F9074605F10F0177
:103AE0003046FFF7BBFF8046384601F08DF90020D5
:103AF00020704046C8E70146002002E0491C421CF5
:103B0000D0B20A78002AF9D170472DE9F041054674
:103B10000E4614464FF000080CB9BDE8F08115B907
:103B200004202070F9E716B90C202070F5E7DA4878
:103B30000078002802DD12202070EEE728780128A6
:103B400008D0022807D0032802D0042804D100E0BE
:103B500000BF00BF00BF02E001202070DDE700BF12
:103B600001F04EF980463046FFF7C5FF07460F2F9C
:103B700005DD404601F048F90B202070CDE73146C5
:103B800005F10F00FFF76AFF404601F03DF9002004
:103B9000207000BFC1E77CB5002514E069462846C7
:103BA00000F056FF064666B9BC4850F8254044B1BF
:103BB000012C06D0D4E9020100EB8100A06301983A
:103BC000E063681CC5B21F2DE8DD7CBD002402E067
:103BD000C82001F01DF8B24800780028F8D0B1489C
:103BE00000686421B0FBF1F0AE4908600846006847
:103BF00028B90020AC490870FF2000F074FF00BF16
:103C000001F0FEF80446A9480068A94908600020B0
:103C1000A6490860204601F0F7F8A5480068A149C8
:103C20000968B0FBF1F0C0F164009F49087001F031
:103C30003EF9FFF7B0FF642000F0EAFFE0E700B5CF
:103C400087B00320002180229A4BCDE90132CDE9D3
:103C500003104FF6FE701E23974A0090AFF29300B8
:103C600000F0CDFC06AA95A11E2000F050FE07B082
:103C700000BD002400BF01F0C3F804468B48006873
:103C8000401C8A490860204601F0BEF801F00EF998
:103C9000F1E700B587B00320002180228B4BCDE9EE
:103CA0000132CDE903104FF6FF701F23884A0090C0
:103CB000AFF2410000F0A3FC06AA86A11F2000F08D
:103CC00026FE07B000BD04E0002200F8012B4A1ECA
:103CD00091B20029F8DC704730B54FF4A0718148EB
:103CE000FFF7F1FF7F4B03F1200500240AE00020DD
:103CF00018705D603F20D87300211974203320357F
:103D0000601C84B2092CF2DB0020187058603F2040
:103D1000D8730021197473487349086030BD30B5F9
:103D20004FF4B4617148FFF7CEFF80215B48FFF785
:103D3000CAFF6E4B03F1500500240AE05D613F208D
:103D400083F8400000214120C15450335035601C9D
:103D5000C4B2112CF2D3002058613F2083F84000F8
:103D600000214120C1540020614908605F48614939
:103D7000086030BD0022604B1A706049002004E0EA
:103D8000002201F8012B421CD0B20428F8DB0022EB
:103D90005B4B1A705B4B1A705B4B1A605B4B1A6083
:103DA000704700205A4908603B490870594908701B
:103DB0005949087059490870594908603B490860D9
:103DC0003B4908603749086035490870704710B5AD
:103DD00001F068F8FFF7E5FFFFF7CCFFFFF79FFF63
:103DE000FFF77AFFFFF755FFFFF729FF01F05BF8B8
:103DF00010BD4A480078012808D127480078FF28DC
:103E000004D225480078401C234908707047454972
:103E1000394A1278885C3949095C424A515C01EBA5
:103E2000C001384A1170704710B500243B48007833
:103E3000012830D100F0E4FF04461748007800283C
:103E400004DD15480078401E1349087012480078B8
:103E5000F0B930480078D8B9FFF7D9FF2948007881
:103E600027490978884213D00C482649097850F828
:103E700021002549086008460068C06A401C09689E
:103E8000C86227480068401C2549086000F0D4FF3C
:103E9000204600F0B9FF10BD3D000020881B002027
:103EA0003C000020340000203000002048000020AA
:103EB00038000020881700208419002075432F4FF8
:103EC000532D494920537461740000008819002063
:103ED000841B002075432F4F532D49492049646CA2
:103EE00065000000481600202C000020081C00205F
:103EF0005800002050000020410000204200002017
:103F00003F00002040000020540000204C00002012
:103F1000600000203E0000204700002046000020F6
:103F200028000020F45A000810B50024FE4800784C
:103F3000012811D100F064FF0446FC48007840B924
:103F4000FB480078FF2804D2F9480078401CF84963
:103F50000870204600F058FF10BD10B5002400F096
:103F60004FFF0446F1480078F0B9F1480078D8B91D
:103F7000FFF74DFFEF480078EF490978884213D0EA
:103F8000EE48EC49097850F82100ED4908600846F0
:103F90000068C06A401C0968C862EA480068401CA2
:103FA000E849086000F043FF204600F02DFF10BDF7
:103FB00010B50024DC480078012822D100F020FF51
:103FC0000446DB480078002818DDD9480078401EF8
:103FD000D74908700846007860B9D448007828B9F5
:103FE000204600F011FFFFF7B8FF0AE0204600F07E
:103FF0000BFF06E0204600F007FF02E0204600F03D
:1040000003FF10BD10B5C848007890B9FFF7FFFE58
:10401000C8480078C8490870C848C649097850F8A7
:104020002100C749086008460068C749086000F0D9
:10403000EEFE10BD10B50024022000F0E9FD00F0F6
:10404000DFFE04460020C1490860204600F0DCFE87
:10405000642000F0DDFD00F0D3FE0446BB4800689C
:10406000BB4908600120BB490870204600F0CCFE27
:1040700010BD70B5002600F06AFF00F0C1FE0646D4
:10408000B5480068401CB4490860304600F0BCFEEA
:10409000A5480078012853D1B048007820B1012804
:1040A00004D0022809D103E001250BE0002509E036
:1040B00001250120A949087004E001250020A74935
:1040C000087000BF00BF05B970BDA548046833E0A3
:1040D00000F096FE0646208C50B3208C401E80B225
:1040E000208428BB94F8220000F0370040B114F877
:1040F000220F20F03700207001206070223C02E087
:10410000002084F8230094F8220000F0080078B919
:104110002634A0789349097808439249087020789A
:104120009149085C6178084314F826198E4A505466
:104130006469304600F068FE94F824001F28C7D157
:1041400000BFC1E74FF48F707047704710B590F80B
:10415000262001F10B039B5C90F82740A34301F15B
:104160000B04A35423469B5C23B98B7A90F8284018
:10417000A3438B7210BD2DE9F04F05460F469046C4
:104180009946A87A79490E5C05F10B00805D11F81B
:1041900000B00BEBC60000F0FF0A684850F82A4058
:1041A000002024F8200F00BFA07820EA0800A070AB
:1041B00084F80390A078203C00F0080068B994F8D7
:1041C0002800684909780843664908706648805D98
:1041D00094F8271008436449885529462046FFF77C
:1041E000B5FF5046BDE8F08F10B5574A1268D06150
:1041F000554A126892F8263000F10B02D25C524BFD
:104200001B6893F827301A434F4B1B6893F82640DE
:1042100000F10B031A55827A4B4B1B6893F8283038
:104220001A438272484A126892F826104E4A525C2B
:10423000454B1B6893F827309A434B4B5A541A4608
:10424000525C42B9404A126892F82830454A1278C6
:104250009A43444B1A7010BD0023837200F10B0186
:10426000002204E0002301F8013B531CDAB2042AC7
:10427000F8DB704705E011F8013B00F8013B531EE5
:104280009AB2002AF7DC70472DE9F84F05460E4632
:1042900017469846DDE90BABDDF82890002000902A
:1042A00000F0AEFD009032480468002C7ED054F837
:1042B000140F2F490860009800F0A6FD44F8146C14
:1042C00025740020A073E073A08144F810AC44F87A
:1042D000089C44F80C7C24F804BC24F8028C60751B
:1042E000E810A07405F007006074A17C01208840EC
:1042F0002075617C01208840E0740020A060A061EE
:104300002062E0616062A0623F2084F82C00143CCF
:10431000002141200155204600F018FE204600F003
:10432000C3FD00F06DFD25E0460000203D000020AB
:104330003E000020400000203F000020881B00209D
:1043400054000020280000204C00002048000020DD
:10435000340000203C000020600000205C000020B1
:10436000580000204100002042000020F45A0008BC
:10437000500000200090194840F825401848006877
:1043800060610020A0611648006810B11448006800
:104390008461134804602634A078124909780843E0
:1043A0001049087020781049085C00E010E061783E
:1043B000084314F826190C4A50540C480078401C45
:1043C0000A490870009800F01FFD0020BDE8F88F32
:1043D000009800F019FD4220F8E70000881B00203B
:1043E000580000204100002042000020470000202B
:1043F0002DE9FF5F81460F4600200090B9F11F0FA5
:1044000006DBB9F1FF0F03D02A2004B0BDE8F09F0E
:104410001F2F01DB2A20F8E700F0F2FC0090F8489B
:1044200050F8270020B1009800F0EEFC2820ECE7BF
:10443000B9F1FF0F03D1F348006890F82490F048D9
:1044400050F8294024B9009800F0DEFC2920DCE770
:10445000012C04D1009800F0D7FC4320D5E74FEAA7
:10446000E70807F007000390012000FA08F000F0C9
:10447000FF0A01210398814001F0FF0B0020E04971
:1044800041F82900084640F8274014F8266FA07824
:1044900002906078263C0190DB48815D01980140E4
:1044A000E1B1D948805D01998843D74988550846CC
:1044B000805D28B9D548007802998843D3490870AF
:1044C000D248007840EA0A00D0490870CE4810F877
:1044D000080040EA0B00CC4901F80800E569E5B1A5
:1044E00005F10B00805D0199884305F10B018855AA
:1044F0000846805D18B9A87A02998843A872A87AFC
:1045000040EA0A00A87205F10B0010F8080040EA22
:104510000B0005F10B0101F8080084F8247084F801
:104520002680039884F8250084F828A084F827B012
:10453000009800F069FCB6480078012801D1FFF727
:104540000CFD002061E72DE9FE4F06460F46904620
:104550001C464FF000091F2C02DD2A20BDE8FE8F0B
:1045600000F04EFC8146AB480078002804DD484648
:1045700000F04AFC3C20F1E7A14850F8240060BB61
:1045800001209F4941F82400484600F03DFC0023EB
:1045900042463946304600F08BFC824600200090AF
:1045A000019003460246514602902046FFF76CFEFA
:1045B000054635B99648007801280CD1FFF7CDFCA7
:1045C00009E000F01DFC814600208D4941F82400DF
:1045D000484600F019FC2846C0E7484600F014FCA5
:1045E0002820BBE702F0010343B102F002032BB124
:1045F00002E0491E002308C00029FAD170472DE9C6
:10460000F04F85B081468A4693461C46DDE90F7817
:10461000129D002003901F2C03DD2A2005B0BDE869
:10462000F08F00F0EDFB03907A480078002804DD5D
:10463000039800F0E9FB3C20F0E7714850F82400B3
:1046400088BB01206E4941F82400039800F0DCFB90
:104650002A4641463846FFF7C5FF2B465A46514683
:10466000484600F025FC04901198CDE900800295A1
:104670003A4620460E9B0499FFF706FE064636B9D9
:104680006348007801280CD1FFF767FC09E000F0CF
:10469000B7FB039000205A4941F82400039800F02A
:1046A000B3FB3046BAE7FFE7039800F0ADFB2820E4
:1046B000B4E770B50546002656480078002801DDAD
:1046C000402070BD1F2D01D13E20FAE71F2D03DBD6
:1046D000FF2D01D02A20F4E700F092FB0646FF2DC3
:1046E00003D14848006890F82450454850F82540C8
:1046F00024B9304600F088FB4320E2E7012C04D1C6
:10470000304600F081FB3D20DBE714F8260F3E49E0
:10471000085C6178884321783B4A505414F8260994
:104720001146085C30B994F828103848007888435E
:1047300036490870E06918B12046E169FFF706FDC7
:104740000020208484F8220084F823003248007876
:10475000FF2804D230480078401C2F4908703046AA
:1047600000F052FBFFF7F1FC00F04AFB06462A4836
:104770000078002804DD28480078401E264908708B
:10478000204600F092FB25480078401E234908701F
:1047900000201B4941F82500A06930B9002061695B
:1047A00088611F496069086005E0D4E90501486136
:1047B000D4E9051088611B480068606119480460ED
:1047C0003F2084F84000002141200155304600F090
:1047D0001BFB0F480078012801D1FFF7BEFB00202A
:1047E0006FE72DE9F041044600271F2C02D13E203F
:1047F000BDE8F0811F2C17DBFF2C15D02A20F7E72E
:10480000881B00204C0000204200002041000020B6
:10481000460000203D0000203E0000204700002010
:104820005800002050000020FF2C0BD100F0E8FAC7
:104830000746F148006890F82960384600F0E4FA2D
:104840003046D5E700F0DCFA0746EC4850F8245033
:1048500025B9384600F0D8FA4320C9E7012D04D124
:10486000384600F0D1FA3D20C2E73F2085F8290004
:10487000384600F0C9FA0020BAE72DE9F0470546AE
:104880000F4614464FF0000814B90020BDE8F08729
:104890001F2D05DDFF2D03D02A2020700020F5E715
:1048A0001FB90C2020700020F0E7D54800780028C0
:1048B00003DD112020700020E8E700F0A1FA804617
:1048C000FF2D03D1CC48006890F82450CB4850F815
:1048D000256036B9404600F097FA4320207000204A
:1048E000D4E7012E06D1404600F08EFA4320207016
:1048F0000020CBE706F140013846FFF7AFF88146CC
:10490000404600F081FA002020704846BEE72DE9BD
:10491000F04705460F4614464FF000090CB9BDE8B4
:10492000F0871F2D04DDFF2D02D02A202070F6E72E
:1049300017B90C202070F2E7B1480078002802DD9A
:1049400012202070EBE700F05BFA8146FF2D03D1C7
:10495000A948006890F82450A84850F825602EB95E
:10496000484600F051FA43202070D8E7012E05D1C7
:10497000484600F049FA43202070D0E73846FFF758
:10498000BAF88046B8F10F0F05DD484600F03CFA52
:1049900041202070C3E7394606F14000FFF75EF87A
:1049A000484600F031FA0020207000BFB7E770B52C
:1049B000054600261F2D01DB2A2070BD00F020FADD
:1049C00006468E4850F8254024B9304600F01CFABF
:1049D0004620F2E7012C04D1304600F015FA4320BE
:1049E000EBE794F8220000F0080060B314F8220FFF
:1049F00020F00800207014F82209F8B9208CC8B9FA
:104A00002634A0787F49097808437E4908702078C9
:104A10007D49085C6178084314F826197A4A505495
:104A2000304600F0F1F979480078012809D1FFF704
:104A300094FA06E0304600F0E7F902E0304600F074
:104A4000E3F90020B9E7304600F0DEF94420B4E78E
:104A50002DE9F04706460C464FF0000A1F2E04DDF4
:104A6000FF2E02D02A20BDE8F0870CB90920FAE712
:104A700000202060606000F0C3F98246FF2E03D161
:104A80005D48006890F824605C4850F8265025B9CD
:104A9000504600F0B9F94320E5E7012D04D1504616
:104AA00000F0B2F94320DEE7287C00F0010020B9D5
:104AB000504600F0A9F94520D5E70027D5F80C901D
:104AC000D5F80880504600F09FF900E07F1C58F8A8
:104AD000041B0029FAD0B8002060A9EB0700800071
:104AE00060600020BFE72DE9F04105464FF0000867
:104AF0001F2D02D14720BDE8F0811F2D03DBFF2DC4
:104B000001D02A20F7E700F07BF98046FF2D05D180
:104B10003948006890F82450012608E036480068BB
:104B200090F82400A84201D1012600E00026334875
:104B300050F8254024B9404600F066F94820DAE7ED
:104B4000012C04D1404600F05FF94320D3E794F8EC
:104B500026702D48C05D94F8271088432A49C8550F
:104B60000846C05D30B994F828102648007888437C
:104B70002449087094F8220040F0080084F82200CC
:104B8000404600F041F9012E01D1FFF7E6F900207F
:104B9000B1E72DE9F04104460E4600271F2C04DD45
:104BA000FF2C02D02A20BDE8F0810EB90920FAE7D7
:104BB00000F026F90746FF2C03D10F48006890F853
:104BC00024400E4850F8245025B9384600F01CF90E
:104BD0002920E8E7012D04D1384600F015F94320DB
:104BE000E1E7502229463046FFF744FB384600F003
:104BF0000BF90020D7E700004C000020881B0020A4
:104C00003D0000204100002042000020460000201E
:104C100070B50546002674480078002800DD70BD98
:104C2000002D23DD00F0ECF806467048006890F88F
:104C300026406F48005D6D49096891F82710884348
:104C40006B4908550846005D40B96848006890F80F
:104C500028106848007888436649087063480068EF
:104C60000584304600F0D0F8FFF777F900BFD6E7AB
:104C70002DE9F04780460D4616461C465A480078F6
:104C8000002802DD5520BDE8F087B8F1000F04D1FF
:104C90001DB916B90CB95420F5E73B2D01DD5120A3
:104CA000F1E73B2E01DD5220EDE7B4F57A7F01DB21
:104CB0005320E8E74FF47A7060434FF47A71B0FB09
:104CC000F1F14FF4616008FB00F0C5EB051200EB59
:104CD0008200304400EB4002C2EBC01001EBC00781
:104CE0004FEA1749BFB23846FFF792FF0BE04FF487
:104CF0000040FFF78DFF4FF40040FFF789FFA9F157
:104D000001001FFA80F9B9F1000FF0DC0020BAE7CA
:104D100070B5054600261F2D01DB2A2070BD00F06E
:104D20006FF80646344850F8254024B9304600F064
:104D30006BF84320F2E7012C04D1304600F064F810
:104D40004320EBE7208C20B9304600F05DF850207E
:104D5000E4E70020208494F8220000F0370040B1FE
:104D600014F8220F20F03700207001206070223CE0
:104D700002E0002084F8230094F8220000F00800EC
:104D8000A8B92634A0781B49097808431949087046
:104D900020781749085C6178084314F82619144AEA
:104DA0005054304600F030F8FFF7D7F802E03046B4
:104DB00000F02AF80020B1E770B5002500F020F8D7
:104DC00005460E480468284600F01EF8204670BDCF
:104DD00070B50446002500F013F805460748046046
:104DE000284600F011F870BD3D0000204C00002066
:104DF0004200002041000020881B002060000020AD
:104E0000EFF3108072B6704780F3108870471D482A
:104E10004FF0FF010170002080F309881A4801213A
:104E200001701A484FF08051016062B6FEE71748E2
:104E30004FF080510160704714484FF0805101607D
:104E4000704772B6EFF3098028B1203880E8F00F80
:104E50000F490968086000B50E4880475DF804EB0B
:104E60000D480E490A78027009480D490A68026027
:104E7000106890E8F00F203080F309884EF0040E9F
:104E800062B6704722ED00E04600002004ED00E02D
:104E90004C0000204B4F00083F0000204000002045
:104EA0005400002070477047704770477047704744
:104EB00070B5044610464FF080750560051F284602
:104EC0002C606FF00106051F28462E604FF0123649
:104ED000051F28462E604FF00336051F28462E601A
:104EE0004FF00236051F28462E607610051F284613
:104EF0002E60051F284629604FF01136051F2846F1
:104F00002E604FF01036051F28462E604FF00936F0
:104F1000051F28462E604FF00836051F28462E60D4
:104F20004FF00736051F28462E604FF00636051F46
:104F300028462E604FF00536051F28462E604FF09C
:104F40000436051F28462E6070BD704770477047B5
:104F5000F0B480EA0102D40F4200B2EB410F02D25A
:104F60000246084611464A0042D0C30DDDB2C1F3E5
:104F7000C752AD1A202D35DAC1F3160141F40002F3
:104F800004B15242C5F1200602FA06F12A4110444A
:104F9000B3EBD05F23D0C4B1012DA0EBC35009DC2B
:104FA000F0BC4FF0004202EAC352DBB200F5000051
:104FB00000F0BFB8400000F1807000EBC350A0F1DA
:104FC000807040EAD170490009E0490841EAC071A7
:104FD000A0EBC35000F50000400800EBC350F0BC4C
:104FE00000F09EB86142012202EB4101001BF6E78E
:104FF000F0BC704781F00041AAE780F00040A7E7CD
:1050000080EA010210B502F00043400022D04A00BD
:105010001FD0010E01EB1261C0F35600C2F356021D
:1050200040F4000042F40002A0FB022000047F399B
:10503000140400D0401C50EA124001D44000491E24
:10504000C2B20C0604EBD010401C4008802A02D0EB
:1050500003E0002010BD20F00100002900DA00204C
:10506000184310BDC10F80EAE0700844CA079623B8
:10507000002100F05EB800F0004220F00040C10DB9
:10508000C0F3160040F400007F2901DA00207047C9
:10509000962903DCC1F19601C84001E096398840A9
:1050A000002AF4D04042704720F00040C10DC0F308
:1050B000160040F400007F2901DA0020704796298D
:1050C00003DCC1F19601C8407047963988407047AB
:1050D00000F0004230F000400AD0C10D01F56071CF
:1050E000C0F3160042EA0151C2084007114370475D
:1050F000002001467047000030B5002904DB4FF066
:105100000044404264EB0101002B04DB4FF00044FB
:10511000524264EB03038B4208BF824230BD000061
:105120000029A8BF7047401C490008BF20F00100BB
:10513000704710B4B0FA80FC00FA0CF050EA010499
:1051400004BF10BC704749B1CCF1200421FA04F42B
:1051500011FA0CF118BF012121430843A3EB0C0104
:10516000CB1D4FEA00614FEA102042BF002010BC67
:10517000704700EBC35010440029A4BF10BC704717
:10518000401C490008BF20F0010010BC704700001F
:10519000064C074D06E0E06840F0010394E8070084
:1051A00098471034AC42F6D3FAF7C6FFF45B000818
:1051B000145C00080FB4054B10B503A9044A02980B
:1051C00000F017F810BC5DF814FB00005D2100082A
:1051D0006400002002E008C8121F08C1002AFAD1AA
:1051E00070477047002001E001C1121F002AFBD167
:1051F00070472DE9F84F99469246884605460027A4
:1052000006E025280AD051464A4690476D1C7F1C6F
:1052100028780028F5D13846BDE8F88F002315F826
:10522000011F18462E2915D115F8011F04232A291C
:105230000DD06FF02F022978A1F13004092C09D884
:1052400000EB800002EB400008446D1CF3E758F8C7
:10525000040B6D1C2A78002ADDD0632A07D0732A3C
:105260000FD0104651464A4690477F1C2AE018F856
:10527000042B8DF8002000218DF801106E460121CD
:1052800003E058F8046B4FF0FF315A074FF0000469
:1052900001D409E0641C84420BDA8C42FADB325DF3
:1052A000002AF7D105E0641C8C42FCDB305D00284D
:1052B000F9D1274404E016F8010B51464A469047BD
:1052C000641EF8D26D1CA3E700A24A0400A24A049F
:1052D00000A24A040051250200A24A040000000076
:1052E00000000000002F000000000700070000146D
:1052F0007F147F1400242A7F2A120062640813237B
:1053000000364955225000000503000000001C2211
:105310004100000041221C000014083E081400084F
:10532000083E0808000000A06000000808080808FF
:10533000000060600000002010080402003E514997
:10534000453E0000427F4000004261514946002135
:1053500041454B31001814127F100027454545394F
:10536000003C4A49493000017109050300364949AA
:10537000493600064949291E000036360000000063
:1053800056360000000814224100001414141414AE
:105390000000412214080002015109060032495957
:1053A000513E007C1211127C007F49494936003E73
:1053B00041414122007F4141221C007F494949412E
:1053C000007F09090901003E4149497A007F080828
:1053D000087F0000417F4100002040413F01007FE5
:1053E00008142241007F40404040007F020C027FB1
:1053F000007F0408107F003E4141413E007F0909C3
:105400000906003E4151215E007F091929460046E8
:10541000494949310001017F0101003F4040403FBF
:10542000001F2040201F003F4038403F0063140809
:1054300014630007087008070061514945430000E4
:105440007F41410000552A552A55000041417F0007
:1054500000040201020400404040404000000102FC
:105460000400002054545478007F484444380038E5
:105470004444442000384444487F0038545454186D
:1054800000087E0901020018A4A4A47C007F08047F
:1054900004780000447D4000004080847D00007F4F
:1054A000102844000000417F4000007C041804786C
:1054B000007C0804047800384444443800FC242468
:1054C00024180018242418FC007C08040408004850
:1054D0005454542000043F444020003C4040207C71
:1054E000001C2040201C003C4030403C0044281060
:1054F0002844001CA0A0A07C004464544C44141414
:10550000141414140000000000000000000000004B
:1055100000000000000000F8000000000000003360
:105520003000000000100C06100C06000000000007
:105530000000000040C07840C0784000043F0404F0
:105540003F040400007088FC08300000001820FFB1
:10555000211E0000F008F000E018000000211C03EC
:105560001E211E0000F00888700000001E21232468
:105570001927211010160E00000000000000000086
:1055800000000000000000E0180402000000000716
:105590001820400000020418E0000000004020181D
:1055A00007000000404080F0804040000202010FF0
:1055B00001020200000000F0000000000101011FD4
:1055C00001010100000000000000000080B0700038
:1055D00000000000000000000000000000010101C8
:1055E0000101010100000000000000000030300057
:1055F0000000000000000000806018040060180631
:105600000100000000E010080810E000000F10206A
:1056100020100F00001010F8000000000020203FB4
:10562000202000000070080808887000003028243E
:1056300022213000003008888848300000182020DF
:1056400020110E000000C02010F800000007042404
:10565000243F240000F80888880808000019212049
:1056600020110E0000E0108888180000000F1120A3
:1056700020110E0000380808C83808000000003F5C
:10568000000000000070880808887000001C2221BB
:1056900021221C0000E010080810E0000000312268
:1056A00022110F00000000C0C00000000000003008
:1056B000300000000000008000000000000080605A
:1056C00000000000000080402010080000010204DB
:1056D00008102000404040404040400004040404C2
:1056E000040404000008102040800000002010087E
:1056F00004020100007048080808F00000000030B3
:1057000036010000C030C828E810E0000718272440
:1057100023140B000000C038E0000000203C2302EE
:105720000227382008F8888888700000203F202051
:1057300020110E00C0300808080838000718202083
:105740002010080008F808080810E000203F20207A
:1057500020100F0008F88888E8081000203F20205B
:105760002320180008F88888E8081000203F20004F
:1057700003000000C0300808083800000718202087
:10578000221E020008F808000008F808203F210146
:1057900001213F20000808F8080800000020203FF1
:1057A0002020000000000808F8080800C080808061
:1057B0007F00000008F888C028180800203F20015A
:1057C0002638200008F8080000000000203F2020B4
:1057D0002020300008F8F800F8F80800203F003FCB
:1057E000003F200008F830C00008F808203F2000E3
:1057F00007183F00E01008080810E0000F102020F4
:1058000020100F0008F808080808F000203F2101C8
:1058100001010000E01008080810E0000F1824241F
:1058200038504F0008F8888888887000203F200092
:10583000030C302000708808080838000038202148
:1058400021221C00180808F8080818000000203F52
:105850002000000008F808000008F808001F2020B9
:1058600020201F000878880000C83808000007388A
:105870000E010000F80800F80008F800033C0700DB
:10588000073C0300081868808068180820302C0343
:10589000032C30200838C800C83808000000203F1A
:1058A0002000000010080808C83808002038262109
:1058B00020201800000000FE020202000000007F0D
:1058C00040404000000C30C000000000000000011B
:1058D0000638C00000020202FE0000000040404006
:1058E0007F0000000000040202020400000000002B
:1058F00000000000000000000000000080808080A8
:10590000808080800002020400000000000000008F
:105910000000000000008080808000000019242228
:1059200022223F2008F8008080000000003F112064
:1059300020110E000000008080800000000E112069
:1059400020201100000000808088F800000E112047
:1059500020103F200000808080800000001F222255
:1059600022221300008080F0888888180020203FC1
:10597000202000000000808080808000006B9494D4
:105980009493600008F8008080800000203F210090
:1059900000203F2000809898000000000020203F59
:1059A00020200000000000809898000000C0808047
:1059B000807F000008F8000080808000203F2402E3
:1059C0002D302000000808F8000000000020203FD3
:1059D000202000008080808080808000203F200088
:1059E0003F20003F8080008080800000203F210019
:1059F00000203F200000808080800000001F2020C9
:105A000020201F00808000808000000080FFA120F7
:105A100020110E000000008080808000000E112008
:105A200020A0FF80808080008080800020203F2197
:105A3000200001000000808080808000003324244A
:105A400024241900008080E0808000000000001FF6
:105A5000202000008080000000808000001F2020A7
:105A600020103F20808080000080808000010E3068
:105A70000806010080800080008080800F300C03C9
:105A80000C300F0000808000808080000020312ECC
:105A90000E312000808080000080808080818E70A8
:105AA0001806010000808080808080000021302C5A
:105AB0002221300000000000807C02020000000073
:105AC000003F404000000000FF0000000000000018
:105AD000FF0000000002027C800000000040403F08
