:020000040801F1
:1000000080410020D9240208C5010108E324020828
:10001000C7010108CB010108CF0101080000000061
:10002000000000000000000000000000D3010108F3
:10003000D501010800000000EF240208D7010108E3
:10004000F3240208F3240208F3240208F32402082C
:10005000F3240208F3240208F3240208F32402081C
:10006000F3240208F3240208F3240208F32402080C
:10007000F3240208F3240208F3240208F3240208FC
:10008000F3240208F3240208F3240208F3240208EC
:10009000F3240208F3240208F3240208F3240208DC
:1000A000F3240208F3240208F3240208F3240208CC
:1000B000F3240208E9010108F1010108F324020810
:1000C000F3240208F3240208F3240208F3240208AC
:1000D000F3240208F3240208F9010108F3240208BA
:1000E000F3240208F3240208F3240208F32402088C
:1000F000F3240208F3240208F3240208F32402087C
:10010000F3240208F3240208F3240208F32402086B
:10011000F324020801020108F3240208F324020870
:10012000F3240208F3240208F3240208F32402084B
:10013000F3240208F3240208F3240208F32402083B
:10014000F3240208F3240208F3240208119E010894
:10015000F3240208F3240208F3240208F32402081B
:10016000F3240208F3240208F3240208F32402080B
:10017000F3240208F3240208F3240208F3240208FB
:10018000F3240208F3240208DFF80CD016F0CAF9B1
:1001900000480047A10101088041002000BFFEE7A0
:1001A00005480649086000F007FA0549087001E0B3
:1001B00000F066F9FCE700000000010808ED00E02F
:1001C00000000020704700BFFEE700BFFEE700BF51
:1001D000FEE77047704710B50B480068401C0A499D
:1001E000086006F0A3FB10BD10B506F096FD10BD2B
:1001F00010B506F099FE10BD10B508F0A6FE10BDB2
:1002000010B508F092FF10BD54050020D348008BB4
:10021000401CD249088308468088401C00B2888070
:100220000846C088401C00B2C88008460089401CAF
:1002300000B2088108464089401C00B24881084647
:100240008089401C00B288810846C089401C00B2E9
:10025000C8810846008A401C00B208820846408ACD
:10026000401C00B248820846808A401C00B2888246
:100270000846C08A401C00B2C8820846007801289F
:1002800004D108464078401C487002E00120B34980
:100290000870704710B5012006F087FBB04808F0E1
:1002A000B1F903F040FB10BD10B52DED028B00201D
:1002B00006F07BFBB0EE408A06F008FB00EE100A69
:1002C000B8EE400ADFEDA70A80EE201AA64880EDBE
:1002D000001A07F041FAB0EE480A07F0E5FCB0EE6C
:1002E000480A01F0BDF9A148B0EE480A04F087FFC2
:1002F00006F0ECFA00EE100AB8EE400ADFED990ABB
:1003000080EE201A984880ED011ABDEC028B10BDDA
:1003100010B52DED028B022006F047FBB0EE408AAF
:1003200006F0D4FA00EE100AB8EE400ADFED8D0AAE
:1003300080EE201A8C4880ED021A8D48D0ED063AE6
:10034000B0EE633AD0ED053AF0EE632AD0ED043A10
:10035000B0EE632AD0ED0C3AF0EE631AD0ED0B3A12
:10036000B0EE631AD0ED0A3AF0EE630AF6EE003A08
:1003700068EE233AB0EE630A7E4A7F497F4801F077
:100380001FFDB0EE480A00F05DFC06F09FFA00EE9B
:10039000100AB8EE400ADFED730A80EE201A7248A8
:1003A00080ED031A02200AF058FC754908800846BF
:1003B000008800EE100AB8EE400ADFED720A60EE27
:1003C000200A9FED711A80EE810AF6EE000A30EEE7
:1003D000600ADFED6E0A20EE200AF1EE000A80EEE0
:1003E000201ABCEEC10A10EE100A694908800846BE
:1003F000008800B2674908800846B0F9000000EEA6
:10040000100AB8EEC00A0921022005F0C0FABDEEBC
:10041000C00A10EE100A00B25E490880BDEC028BE3
:1004200010BD10B508F07EFC10B101205A490870CB
:1004300008F0B8F810BD10B500F0C9FB10BD10B53C
:1004400005F010F908F02AF90AF058FA10BD10B5B5
:100450000AF0C0FA10BD10B5504951480AF071FBBE
:10046000504908800846008838B94D4800784E4900
:1004700008804A4800784D49088010BD7047704791
:1004800010B536480078012866D14948008800B286
:1004900048490880FFF7FEFE3048B0F90400022802
:1004A00004DB00202D498880FFF7FEFE2B48B0F9C1
:1004B0000600052804DB00202849C880FFF728FF34
:1004C0002648B0F908000A2804DB002023490881E7
:1004D000FFF7A7FF2148B0F90A00142804DB002029
:1004E0001E494881FFF7A7FF1C48B0F90C003228CD
:1004F00004DB002019498881FFF7A1FF1748B0F9F4
:100500000E00642804DB00201449C881FFF79FFF18
:100510001248B0F91000C82804DB00200F490882F7
:10052000FFF799FF0D48B0F9140040F2B631884248
:1005300004DB0020094988820AF04CFA0748B0F928
:100540001600B0F57A7F04DB00200449C882FFF76B
:1005500096FF00200149087010BD00000007002030
:10056000F6050020002474491C07002054340020A4
:100570006434002024000020200000201C00002003
:100580007406002033335340000080450050C347B9
:10059000760600206204002010050020700600206E
:1005A0006F06002064040020660400206804002018
:1005B000640500200200002010B54FF480600AF0AE
:1005C0007DFB06F051F906F008FF06F049FA4FF4FA
:1005D000C87006F0A7FD05F075F808F04CFA4FF466
:1005E000C87006F097F9142007F098F907F0E0FFBB
:1005F0004FF4E13008F036FC0AF0D6FA0AF0FEFAC1
:1006000000F050FA642006F085F90AF071F906F05E
:1006100007FA07F0A1FD80F001000A4908700A48B6
:10062000007810B908F061F90AE00648007810B9BE
:1006300008F072F904E00548007808B908F090F96C
:10064000012010BDD80500209005002022060020C2
:1006500038B50122FDA1FE4814F050F90446C4B19A
:1006600000221146F9A015F042F9044614B14FF0EA
:10067000FF3038BD0022F5A1F54814F03FF90446DB
:100680003CB10022F1A1104614F038F96FF00100DE
:10069000EFE7F0A1F04814F0E8FD04463CB1002279
:1006A000EAA1104614F02AF96FF00200E1E70122F6
:1006B000EAA1ED4814F04DF904463CB10022E3A153
:1006C000104614F01BF96FF00300D2E76B4640228E
:1006D000E649E54814F0EFF90446009880B3E24893
:1006E00014F048FC0122E2A1DF4814F032F904467C
:1006F0003CB10022D5A1104614F000F96FF00300C0
:10070000B7E76B464FF49072DB49D74814F0D3F942
:100710000446009848B1D44814F02CFC0022CBA128
:10072000104614F0EBF80120A3E7CF4814F022FCA8
:100730000022C6A1104614F0E1F86FF0030098E71C
:10074000FFE7C94814F016FC0022C0A1104614F0BF
:10075000D5F86FF004008CE738B50022BBA1BC4887
:1007600014F0CCF80446C4B100221146B7A015F02D
:10077000BEF8044614B14FF0FF3038BD0022B3A1DB
:10078000B34814F0BBF804463CB10022AFA11046B8
:1007900014F0B4F86FF00100EFE7AEA1AE4814F02A
:1007A00064FD04463CB10022A8A1104614F0A6F84E
:1007B0006FF00200E1E70A22A8A1AB4814F0C9F8E3
:1007C00004463CB10022A1A1104614F097F86FF046
:1007D0000300D2E76B464022A449A34814F064FA10
:1007E00004467CBBA04814F0C5FB0A22A0A19E4889
:1007F00014F0AFF804463CB1002294A1104614F066
:100800007DF86FF00300B8E76B464FF490729A4999
:10081000954814F049FA04464CB9934814F0AAFBE1
:1008200000228AA1104614F069F80120A5E78E483D
:1008300014F0A0FB002285A1104614F05FF86FF0C1
:1008400003009AE7FFE7884814F094FB00227FA199
:10085000104614F053F86FF004008EE710B5874887
:10086000824BD3E900219B68C0E90E1342637F4BA2
:10087000D3E903215B69C0E91113026480487B4B13
:1008800018330ECB08300EC07C4A784B24330BCB88
:1008900058320BC2754890ED0D0A784880ED190A60
:1008A000724890ED0E0A754880ED1A0A7548724C30
:1008B0001ECC54301EC064386F49D1E905340A6932
:1008C000C969C0E91A34426601676B4BD3E9091460
:1008D0001A6ADB6AC0E91F43C0E91D216A48664BFA
:1008E000D3E90C41D3E90E23C0E91541C0E9172330
:1008F0006149D1E911430A6CC96CC0E91A434266E7
:1009000001675D49D1E91434D1E91621C0E91D34EC
:10091000C0E91F2110BD10B500F082F905F0E7FE17
:1009200005F004FF10BD10B50022012147A014F00E
:10093000DEFF9FED560A504880ED040A9FED530AF2
:1009400080ED000A9FED520A80ED080A9FED510AE2
:1009500080ED060A9FED4F0A80ED020AB7EE000A0D
:1009600080ED0A0AB0EE000A80ED050AB0EE000A3A
:1009700080ED010AB7EE000A80ED090AB7EE000A21
:1009800080ED070AB7EE000A80ED030AB7EE000A11
:1009900080ED0B0AB6EE000A80ED100AB6EE000AF2
:1009A00080ED0C0A9FED3C0A80ED140A9FED3B0A96
:1009B00080ED120A9FED390A80ED0E0A9FED370A8D
:1009C00080ED160A9FED360A80ED110A9FED340A7C
:1009D00080ED0D0A9FED2F0A80ED150AB7EE000A93
:1009E00080ED200AB7EE000A80ED220AB7EE000A79
:1009F00080ED210AB7EE000A80ED240AB7EE000A66
:100A000080ED260AB7EE000A80ED250AB7EE000A4F
:100A100080ED180AB7EE000A80ED1A0AB7EE000A58
:100A200080ED190AB7EE000A80ED1C0AB7EE000A45
:100A300080ED1E0AB7EE000A80ED1D0AFFF78CFE5E
:100A4000FFF70CFFFFF767FF10BD0000303A000012
:100A5000900800202F000000E828002073656E73C6
:100A60006F722E62696E0000C018002030070020EF
:100A70007069642E62696E00700700206434002083
:100A8000AC05002004290020C8290020CDCC4C3F13
:100A90009A99993FCDCCCC3DCDCC4C3ECDCC4C3D64
:100AA0009A99993E10B5FFF7D3FD0446002C04DA5D
:100AB000FFF739FF012051490870FFF7CFFEFFF71C
:100AC0002AFF10BD10B504464D4894E80E0034309E
:100AD0000EC04C4894E80E000EC0494890ED190A2B
:100AE000484880ED0D0AFFF737FE10BD10B50446EB
:100AF000434894E80E0040300EC0424894E80E008F
:100B00000C300EC03E4890ED1A0A3E4880ED0E0AA9
:100B1000FFF722FE10BD10B504463B4894E80E00D6
:100B200008300EC0374894E80E0018300EC0FFF7AA
:100B300013FE10BD10B50446314894E80E0058303D
:100B40000EC0304894E80E0024300EC0FFF704FEBB
:100B500010BD10B52D482E49D1E916344A6D096EE5
:100B600080E81C00C16001462948D0E91A34426E71
:100B7000006FC1E905340A61C8612548D0E91E3417
:100B8000426FD0F88000C1E909340A62C8620A469F
:100B9000204CD4E91530D4E91714C2E90E14C2E987
:100BA0000C3010461B49D1E91942D1E91B31C0E98B
:100BB0001042C0E912311749D1E91D42D1E91F3174
:100BC000C0E91442C0E91631FFF7C6FD10BD10B5EB
:100BD0001148008820B110480088401C0E49088048
:100BE0000D4800883C2807DD00200B4908800B4891
:100BF000007808B9FFF7ADFF10BD00000400002029
:100C00006434002030070020AC050020700700206D
:100C100004290020C829002080040020D0040020DE
:100C2000B7EE000AFA4880ED180AB7EE000A80ED28
:100C30001C0AB7EE000A80ED200A9FEDF60A80ED4F
:100C4000300A704710B52DED0E8BB0EE408AF24899
:100C5000008800EE900AF8EE600AB0EE600AF3EE4B
:100C60000E0A01F01EFF9FEDED1AC0EE010AB3EE71
:100C7000090A20EE800AEA4880ED000AE64840882A
:100C8000404200EE900AF8EEE00AB0EE600AF3EEA1
:100C90000E0A01F006FFDFEDE10A80EE201AB3EE46
:100CA000090A21EE000ADE4880ED010ADD480078DD
:100CB00020BBD948C08800EE900AF8EE600AB0EE7A
:100CC000600ADFEDD90A01F03BFFDFEDD40A80EEC8
:100CD000201A9FEDD60A21EE000ABDEEC00A10EEE2
:100CE000100A00B200EE100AF8EEC00ACC4890EDEF
:100CF000020A00EE880A80ED020A36E0C84890ED4C
:100D0000020ACB48D0ED000A30EEC00A10EE101AED
:100D1000084615F084FA41EC1C0B18EE100A15F089
:100D20007EFA41EC1E0B9FEDC30B53EC102B15F01C
:100D3000F3F941EC1D0B53EC1C2B15F0EDF941ECD4
:100D40001A0BB74890ED020A10EE101A084615F07B
:100D500066FA41EC1B0B53EC1A2B15F036F941ECFB
:100D6000190B15F09FFAAE498860AD48D0ED020A24
:100D7000B0EE600A01F0F8FEA94880ED020AAF4823
:100D8000D0ED000AA64890ED001A70EE810AAC483A
:100D900090ED001A70EEC10AB0EE600A01F0E4FEB8
:100DA000A84880ED000AA548D0ED010A9C4890EDC6
:100DB000011A70EE810AA44890ED001A70EEC10A83
:100DC000B0EE600A01F0D0FE9E4880ED010A9B481B
:100DD000D0ED020A924890ED021A70EE810A944812
:100DE00090ED001A70EEC10AB0EE600A01F0BCFE90
:100DF000944880ED020A90ED000AB5EEC00AF1EECB
:100E000010FA02DD90ED000A04E08E4890ED000A31
:100E1000B1EE400AF3EE0E0A80EE201A894880ED0A
:100E20002D1A90ED010AB5EEC00AF1EE10FA02DDBE
:100E300090ED010A04E0834890ED010AB1EE400A0A
:100E4000F3EE0E0A80EE201A7E4880ED2E1A90ED09
:100E5000020AB5EEC00AF1EE10FA02DD90ED020AC8
:100E600004E0784890ED020AB1EE400AF3EE0E0A73
:100E700080EE201A734880ED2F1ADFED740A80EEA1
:100E8000880AD0ED000A90ED031A70EEC10A90EDC9
:100E9000161AF2EE041A21EE211A60EE810A60EEB3
:100EA000200A90ED2D1A9FED6A0ADFED6A1A01EE15
:100EB000810A20EE800A80ED0C0ADFED640A80EEE4
:100EC000880AD0ED010A90ED041A70EEC10A90ED87
:100ED0001A1AF2EE041A21EE211A60EE810A60EE6F
:100EE000200A90ED2E1A9FED5A0ADFED5A1A01EEF4
:100EF000810A20EE800A80ED0D0ADFED540A80EEB3
:100F0000880AD0ED020A90ED051A70EEC10A90ED44
:100F10001E1AF2EE041A21EE211A60EE810A60EE2A
:100F2000200A90ED2F1A9FED4A0ADFED4A1A01EED2
:100F3000810A20EE800A80ED0E0A90ED170AD0EDAE
:100F4000000A60EE200A90ED060A00EE880A80EDA5
:100F5000060A90ED1B0AD0ED010A60EE200A90ED22
:100F6000070A00EE880A80ED070A90ED1F0AD0ED0F
:100F7000020A60EE200A90ED080A00EE880A80ED71
:100F8000080A354890ED000AF6EE000A20EE200A25
:100F9000F3EE090A20EE200A2A4880ED090A2E48BD
:100FA00090ED000AF6EE000A20EE200AF3EE090AA0
:100FB00020EE200A234880ED0A0A274890ED000A17
:100FC000F6EE000A20EE200AF3EE090A20EE200ACF
:100FD0001C4880ED0B0A90ED060AD0ED090AF1EEEF
:100FE000600AB4EEE00AF1EE10FA04D290ED090ABC
:100FF000B1EE400A35E0134890ED060AD0ED090A3B
:10100000B4EEE00AF1EE10FA28DD90ED090A28E0CE
:1010100004290020CDCC4C3EAC2B00200000FA432C
:101020008C2A00200C000020000020420000164303
:10103000240000201F85EB51B81E0940982A00208B
:101040001C000020C8290020200000200AD7A33B54
:101050006666263F3333B33E10000020FE4890ED15
:10106000060AFD4880ED060A90ED070AD0ED0A0A4F
:10107000F1EE600AB4EEE00AF1EE10FA04D290ED5F
:101080000A0AB1EE400A0FE0F34890ED070AD0EDEE
:101090000A0AB4EEE00AF1EE10FA02DD90ED0A0A57
:1010A00002E0ED4890ED070AEB4880ED070A90ED6D
:1010B000080AD0ED0B0AF1EE600AB4EEE00AF1EE98
:1010C00010FA04D290ED0B0AB1EE400A0FE0E248AC
:1010D00090ED080AD0ED0B0AB4EEE00AF1EE10FA3A
:1010E00002DD90ED0B0A02E0DB4890ED080ADA48D9
:1010F00080ED080A90ED000ADFEDD80AB4EEE00AB0
:10110000F1EE10FA02D29FEDD50A0FE0D24890ED31
:10111000000ADFEDD30AB4EEE00AF1EE10FA02DDC8
:101120009FEDCF0A02E0CC4890ED000ACA4880ED5E
:10113000000A90ED010ADFEDC90AB4EEE00AF1EE13
:1011400010FA02D29FEDC50A0FE0C34890ED010AE4
:10115000DFEDC30AB4EEE00AF1EE10FA02DD9FED16
:10116000C00A02E0BC4890ED010ABB4880ED010ACC
:1011700090ED020ADFEDB90AB4EEE00AF1EE10FAE2
:1011800002D29FEDB60A0FE0B34890ED020ADFED00
:10119000B40AB4EEE00AF1EE10FA02DD9FEDB00AF7
:1011A00002E0AD4890ED020AAB4880ED020A90EDF6
:1011B000000AD0ED0C0A30EE200AD0ED060A30EE1F
:1011C000200AD0ED150A20EE200A80ED120A90EDDB
:1011D000010AD0ED0D0A30EE200AD0ED070A30EEFC
:1011E000200AD0ED190A20EE200A80ED130A90EDB6
:1011F000020AD0ED0E0A30EE200AD0ED080A30EED9
:10120000200AD0ED1D0A20EE200A80ED140A90ED90
:10121000000A80ED030A90ED010A80ED040A90EDCA
:10122000020A80ED050ABDEC0E8B10BD10B52DED48
:10123000048B8AB0F0EE408AB0EE609AB0EE418A3C
:101240009FED880AB4EEC08AF1EE10FA02D29FED4B
:10125000850A0BE09FED840AB4EEC08AF1EE10FA25
:1012600002DD9FED810A01E0B0EE480AB0EE408A4F
:101270009FED7E0A8DED050A9FED7C0A8DED060A35
:10128000BDEEC80A10EE100A00B27949088079480C
:1012900090ED000ABDEEC00A10EE100A00B27649C9
:1012A0000880002429E004A800EB840090ED000AE7
:1012B000DFED720AB4EEE00AF1EE10FA02D29FED11
:1012C0006F0A13E004A800EB840090ED000ADFED44
:1012D0006C0AB4EEE00AF1EE10FA02DD9FED680A46
:1012E00004E004A800EB840090ED000A04A800EBE1
:1012F000840080ED000A601CC4B2042CD3DB9DED99
:10130000040AB5EEC00AF1EE10FA02DD9DED040A02
:1013100003E09DED040AB1EE400ADFED5A0A60EEEB
:10132000200A9FED571A80EE810ADFED570A30EE52
:10133000200ADDED040A20EE200A8DED000A9DED65
:10134000050AB5EEC00AF1EE10FA02DD9DED050AC0
:1013500003E09DED050AB1EE400ADFED4A0A20EEFA
:10136000200A9FED471AC0EE010A9FED470A30EEB2
:10137000800ADDED050A20EE200A8DED010A9DEDC3
:10138000060AB5EEC00AF1EE10FA02DD9DED060A7E
:1013900003E09DED060AB1EE400ADFED3A0A20EEC9
:1013A000200A9FED371AC0EE010A9FED370A30EE92
:1013B000800ADDED060A20EE200A8DED020A334890
:1013C000808800EE100AB8EE400ADDED000A3048D1
:1013D00090ED001A01EE200A2E4880ED000A2B48FD
:1013E000408800EE100AB8EE400ADDED010A2848F8
:1013F00090ED001A01EE200A264880ED010A2348EC
:10140000408800EE100AB8EE400ADDED020A2048DE
:1014100090ED001A01EE200A1E4880ED020A1E48D7
:10142000007860B9002408E09FED100A194800EB2D
:10143000840080ED000A601CC4B2042CF4DB174861
:10144000007800EB8000800000EE100AB8EEC00AC1
:10145000104880ED030A23E0C82900200000B4C230
:101460000000B4420000C8C30000C84300000000F0
:101470005E040020240000206004002000007AC4E4
:1014800000007A446666E63ECDCC0C3FAC2B0020D3
:1014900010000020D82A0020D00400207806002068
:1014A00090ED000ABDEEC00A10EE100A00F5E170E2
:1014B00000B2ADF82000F74890ED010ABDEEC00A79
:1014C00010EE100A00F5E17000B2ADF82200F1480C
:1014D00090ED020ABDEEC00A10EE100A00F5E170B0
:1014E00000B2ADF82400EB4890ED030ABDEEC00A4F
:1014F00010EE100A00B2ADF82600E64890ED000AA2
:10150000BDEEC00A10EE100A00F5E17000B2E2492B
:101510000880E04890ED010ABDEEC00A10EE100A06
:1015200000F5E17000B2DD490880DA4890ED020A6A
:10153000BDEEC00A10EE100A00F5E17000B2D84905
:1015400008804FF4FA62002108A805F0E5FE0AB011
:10155000BDEC048B10BD10B52DED028BB0EE408AB2
:10156000D048808800F5FA7000EE100AB8EEC00A84
:10157000CD4880ED000AD0ED000A1FED451A80EE3F
:10158000810ACA48D0ED000A70EE600A9FEDC80AD1
:1015900028EE001A90ED000A01EE200A80ED000A04
:1015A00090ED000AB5EEC00AF1EE10FA02D21FED7E
:1015B000510A0FE0BD4890ED000AF7EE000AB4EEC4
:1015C000E00AF1EE10FA02DDB7EE000A02E0B748D9
:1015D00090ED000AB74880ED000AB34890ED000A8C
:1015E000DFEDB50AB4EEE00AF1EE10FA03D2012005
:1015F000B249087002E00020B0490870AA48D0ED56
:10160000000AB0EE480A04F06EFFAA4890ED000A06
:10161000AB48D0ED000A20EE200AAA4880ED000A6F
:1016200090ED000AB5EEC00AF1EE10FA02D21FEDFD
:10163000710A0FE0A34890ED000ADFEDA30AB4EEB3
:10164000E00AF1EE10FA02DD9FED9F0A02E09D48EC
:1016500090ED000A9B4880ED000ABDEC028B10BDA6
:1016600000B52DED028B83B0B0EE408A974890ED27
:10167000120AF3EE0E0A80EE201A9FED950A21EE73
:10168000000A8DED000AD0ED130AB3EE0E1A80EEBB
:10169000810ADFED8F0A20EE200A8DED010A90ED20
:1016A000140AF3EE0E0A80EE201A9FED890A21EE4D
:1016B000000A8DED020A9DED000A864880ED000AC1
:1016C0009DED010A80ED010A9DED020A80ED020AFE
:1016D00090ED000ADFED800AB4EEE00AF1EE10FAB8
:1016E00002D29FED7D0A0FE07A4890ED000ADFED0F
:1016F000780AB4EEE00AF1EE10FA02DD9FED740A0A
:1017000002E0744890ED000A724880ED000A90ED06
:10171000010ADFED710AB4EEE00AF1EE10FA02D22E
:101720009FED6D0A0FE06B4890ED010ADFED680A4E
:10173000B4EEE00AF1EE10FA02DD9FED650A02E078
:10174000644890ED010A634880ED010A90ED020AB9
:10175000DFED610AB4EEE00AF1EE10FA02D29FED7D
:101760005E0A0FE05B4890ED020ADFED590AB4EE25
:10177000E00AF1EE10FA02DD9FED550A02E055484D
:1017800090ED020A534880ED020ADFED540A80EE24
:10179000880A5348D0ED0A0A524890ED001A70EEBC
:1017A000C10A20EE200A504880ED0F0ADFED4B0AF7
:1017B00080EE880A4A48D0ED0B0AF1EE600A4948EB
:1017C00090ED011A70EEC10A20EE200A464880ED25
:1017D000100ADFED420A80EE880A4148D0ED0C0A7B
:1017E000F1EE600A3F4890ED021A70EEC10A20EE59
:1017F000200A3D4880ED110A364890ED000A38482D
:10180000D0ED0A0A30EE600AF7EE000A20EE200A58
:10181000354880ED000A2F4890ED010A3048D0EDA0
:101820000B0A30EE200AF7EE000A20EE200A2E48BE
:1018300080ED010A274890ED020A2948D0ED0C0AF4
:1018400030EE200AF7EE000A20EE200A264880ED4E
:10185000020A90ED000AB5EEC00AF1EE10FA02DDC0
:1018600090ED000A04E0204890ED000AB1EE400A35
:10187000DFED170A80EE201A1B4880ED2D1A90ED3F
:10188000010AB5EEC00AF1EE10FA2FDD90ED010A63
:1018900031E00000D82A0020580400205A0400201B
:1018A0005C040020AC2B0020140000201800002055
:1018B0003433FB41100000200000C8420C0000201F
:1018C000F80400200800002000004844C829002037
:1018D00000009643B02A0020000096C36F12033B1D
:1018E00064340020BC2A002004290020FE4890ED2A
:1018F000010AB1EE400A5FED0A0A80EE201AFA48AA
:1019000080ED2E1A90ED020AB5EEC00AF1EE10FA43
:1019100002DD90ED020A04E0F34890ED020AB1EE18
:10192000400ADFEDF20A80EE201AEF4880ED2F1A10
:101930005FED160A80EE880AD0ED160A90ED0F1AB8
:10194000FAEE041A21EE211A60EE810A20EE200A36
:1019500080ED0C0A5FED1F0A80EE880AD0ED1A0AAE
:1019600090ED101AFAEE041A21EE211A60EE810AA7
:1019700020EE200A80ED0D0A5FED280A80EE880A2D
:10198000D0ED1E0A90ED111AFAEE041A21EE211A7A
:1019900060EE810A20EE200A80ED0E0A90ED000A2A
:1019A000D0ED0F0A30EE600AD0ED170A60EE200A83
:1019B00090ED060A00EE880A80ED060A90ED010A15
:1019C000D0ED100A30EE600AD0ED1B0A60EE200A5E
:1019D00090ED070A00EE880A80ED070A90ED020AF2
:1019E000D0ED110A30EE600AD0ED1F0A60EE200A39
:1019F00090ED080A00EE880A80ED080ABC4890EDD8
:101A0000000AF6EE000A20EE200A5FED4F0A20EEF3
:101A1000200AB54880ED090AB54890ED000AF6EEB7
:101A2000000A20EE200A5FED560A20EE200AAE489A
:101A300080ED0A0AAE4890ED000AF6EE000A20EEAC
:101A4000200A5FED5D0A20EE200AA74880ED0B0A10
:101A500090ED060AD0ED090AF1EE600AB4EEE00A54
:101A6000F1EE10FA04D290ED090AB1EE400A0FE04F
:101A70009D4890ED060AD0ED090AB4EEE00AF1EEB9
:101A800010FA02DD90ED090A02E0974890ED060A8F
:101A9000954880ED060A90ED070AD0ED0A0AF1EEAE
:101AA000600AB4EEE00AF1EE10FA04D290ED0A0AF0
:101AB000B1EE400A0FE08C4890ED070AD0ED0A0A1B
:101AC000B4EEE00AF1EE10FA02DD90ED0A0A02E04F
:101AD000854890ED070A844880ED070A90ED080AD2
:101AE000D0ED0B0AF1EE600AB4EEE00AF1EE10FA66
:101AF00004D290ED0B0AB1EE400A0FE07A4890ED67
:101B0000080AD0ED0B0AB4EEE00AF1EE10FA02DD9D
:101B100090ED0B0A02E0744890ED080A724880EDDF
:101B2000080A90ED300AF7EE000A30EEC00AD0ED58
:101B3000150A20EE200AD0ED000A90ED0C1A70EE86
:101B4000810A90ED061A70EE810A60EE200A90ED8F
:101B5000301A6848D0ED2D1A9FED670A9FED672A6D
:101B600002EE210AB5EEC00AF1EE10FA02D29FEDA4
:101B7000640A1BE05F48D0ED2D1A9FED5F0A9FEDD0
:101B80005F2A02EE210AF7EE001AB4EEE10AF1EE46
:101B900010FA02DDB7EE000A08E05648D0ED2D1A23
:101BA0009FED550A9FED552A02EE210A21EE000A0B
:101BB000544890ED001A40EE010AB0EE080A20EEFB
:101BC000800A494880ED120A90ED300AF7EE000ACB
:101BD00030EEC00AD0ED190A20EE200AD0ED010A3D
:101BE00090ED0D1A70EE810A90ED071A70EE810AE1
:101BF00060EE200A90ED301A3E48D0ED2E1A9FED8F
:101C00003E0A9FED3E2A02EE210AB5EEC00AF1EE31
:101C100010FA02D29FED3A0A1BE03648D0ED2E1A98
:101C20009FED350A9FED352A02EE210AF7EE001AE4
:101C3000B4EEE10AF1EE10FA02DDB7EE000A08E0B8
:101C40002C48D0ED2E1A9FED2C0A9FED2C2A02EE87
:101C5000210A21EE000A2B4890ED011A40EE010AFC
:101C6000B0EE080A20EE800A1F4880ED130A90EDBE
:101C7000300AF7EE000A30EEC00AD0ED1D0A20EE61
:101C8000200AD0ED020A90ED0E1A70EE810A90ED56
:101C9000081A70EE810A60EE200A90ED301A15489D
:101CA000D0ED2F1A9FED140A9FED142A02EE210A9F
:101CB000B5EEC00AF1EE10FA02D29FED110A2CE047
:101CC0000C48D0ED2F1A9FED0C0A9FED0C2A02EE66
:101CD000210AF7EE001AB4EEE10AF1EE10FA13DD74
:101CE000B7EE000A19E000000429002000001643A6
:101CF00010000020C82900206666E63ECDCC0C3FCF
:101D000000000000B02A00202848D0ED2F1A1FED57
:101D1000060A1FED062A02EE210A21EE000A2448D7
:101D200090ED021A40EE010AB0EE080A20EE800A99
:101D3000204880ED140AB0EE480AFFF70CFC1D485D
:101D4000D0ED141AB0EE611AD0ED131AF0EE610A5C
:101D5000D0ED121AB0EE610AFFF768FA154890ED5F
:101D6000000A80ED030A90ED010A80ED040A90ED6F
:101D7000020A80ED050A104890ED0A0A0F4880ED2E
:101D8000000A0D4890ED0B0AB1EE400A0B4880EDB9
:101D9000010A094890ED0C0AB1EE400A074880EDAF
:101DA000020A03B0BDEC028B00BD0000C829002070
:101DB000B02A00200429002064340020BC2A00201E
:101DC00070B52DED108BB0EE408AB0EE60EAF0EE0B
:101DD00041EAB0EE61FAF0EE429AB0EE629AF0EEAD
:101DE000438A04460D4616469FEDFB0A28EE000A7C
:101DF000F3EE040A20EE200AF0EE40AAF748D0EDF8
:101E0000080A60EEA00A90ED091AD0ED091A41EE19
:101E1000210A90ED0A1AD0ED0A1A41EE210AB0EE1D
:101E2000600A00F006FDEE4880ED000A90ED000A21
:101E3000B5EEC00AF1EE10FA38D0E84890ED080A85
:101E4000E748D0ED000A80EE201AE64890ED000A3F
:101E500071EE400A90ED000A0AEEA00A80ED000A39
:101E6000DE4890ED090ADE48D0ED000A80EE201A27
:101E7000DC4890ED010A71EE400A90ED010A0AEE8D
:101E8000A00A80ED010AD548D0ED0A0AD44890EDA9
:101E9000001A80EE810AD348D0ED020A70EE600A83
:101EA00090ED020A0AEEA00A80ED020ACE4ACD4960
:101EB000CE4803F0E2FDCC48D0ED000A60EEA00A67
:101EC00090ED011AD0ED011A41EE210AB0EE600A40
:101ED00000F0AFFCC64880ED000AC34890ED000A50
:101EE000B5EEC00AF1EE10FA36D090ED010AB5EE6B
:101EF000C00AF1EE10FA2FD090ED020AB5EEC00A3A
:101F0000F1EE10FA28D0BA4890ED000AB5EEC00AFA
:101F1000F1EE10FA20D0B44890ED000AB448D0EDAC
:101F2000000A80EE201AB0EE41BAAF4890ED010AE7
:101F3000AF48D0ED000A80EE201AF0EE41BAF0EE84
:101F40004B0AB0EE6B0A00F0B4FBDFEDAA0A20EEFC
:101F5000200AA94880ED000AA84890ED010AD0EDBA
:101F6000030A20EE200AD0ED000A90ED021A00EEDE
:101F7000C10AF0EE000A20EE200A9C4880ED000A1B
:101F80009E4890ED000AD0ED010A20EE200AD0ED27
:101F9000020A90ED031A00EE810AF0EE000A20EE2C
:101FA000200A924880ED010A944890ED010A20EE43
:101FB000000AD0ED020A90ED021A00EE810AF7EE57
:101FC000000AB0EE001A41EE400A8848C0ED020A4D
:101FD00069EEA90A49EE090A48EEA80AB0EE600ABD
:101FE00000F027FC864880ED000A9FED7B0A28EE72
:101FF000000AF2EE040A60EE200A90ED000A814821
:1020000090ED001A30EE411A90ED000A00EE810AC0
:1020100080ED000AF5EEC09AF1EE10FA02DDB0EEA6
:10202000690A01E0B1EE690ADFED770AB4EEE00A71
:10203000F1EE10FA7DD2B5EEC09AF1EE10FA02DDA3
:10204000B0EE490A01E0B1EE490ADFED6F0AB4EEE5
:10205000E00AF1EE10FA78D2F5EEC08AF1EE10FA4D
:1020600002DDB0EE680A01E0B1EE680ADFED660A53
:10207000B4EEE00AF1EE10FA67D2614890ED000A82
:10208000C9EE800AF0EE609A90ED000AC9EE000AEF
:10209000B0EE609A90ED000AC8EE800AF0EE608A19
:1020A00090ED000ADFED590AB4EEE00AF1EE10FA05
:1020B00054DD90ED000ADFED540AB4EEE00AF1EED3
:1020C00010FA4BD2494890ED020A20EE090AD0EDF1
:1020D000010A08EEE00A4E4880ED030A434890EDFD
:1020E000000A20EE280AD0ED020A09EEE00A48486C
:1020F00080ED040A9FED380A28EE000AF7EE000A88
:1021000020EE20AA90ED030AD0ED060A70EE600AD8
:1021100090ED060A0AEE200A80ED060A90ED040A08
:10212000D0ED070A70EE600A90ED070A0AEE200A69
:1021300000E00AE080ED070A90ED060A80ED000A53
:1021400090ED070A80ED010A08E09FED320A304861
:1021500080ED000A9FED2F0A80ED010A2C4890EDDA
:10216000090AD0ED000A9FED2C1A60EE810AB0EE4C
:10217000001A60EE810A00EE880A80ED090A90EDEF
:102180000A0AD0ED010A9FED241A60EE810AB0EE32
:10219000001A60EE810A00EE880A80ED0A0A90EDCE
:1021A0000B0AD0ED020A9FED1C1A60EE810AB0EE18
:1021B000001A60EE810A00EE880A80ED0B0A90EDAD
:1021C000090ADFED160AB4EEE00AF1EE10FA27D2A2
:1021D0009FED120A34E00000C3F5C840AC050020B2
:1021E000480000205C2B0020502B0020082B0020F2
:1021F00044000020333365425000002028000020B6
:1022000038000020400000200080894500806D4596
:10221000142B002000000000CDCCCC3D34FA0EBDC4
:10222000FE4890ED090ADFEDFE0AB4EEE00AF1EE99
:1022300010FA02DD9FEDFA0A02E0F84890ED090A73
:10224000F64880ED090A90ED0A0A5FED0C0AB4EE3B
:10225000E00AF1EE10FA02D21FED100A0FE0EF488B
:1022600090ED0A0ADFEDEE0AB4EEE00AF1EE10FAA4
:1022700002DD9FEDEB0A02E0E84890ED0A0AE7482C
:1022800080ED0A0A90ED0B0A5FED1C0AB4EEE00A3D
:10229000F1EE10FA02D21FED1F0A0FE0DF4890EDB9
:1022A0000B0ADFEDDF0AB4EEE00AF1EE10FA02DD10
:1022B0009FEDDB0A02E0D94890ED0B0AD74880ED8C
:1022C0000B0AD84890ED020AB5EEC00AF1EE10FAFA
:1022D00029DDD548007898B1D448D0ED000AD4481B
:1022E00090ED001A70EEC10AB0EE600A00F03CFCFE
:1022F000DFEDD00A20EE200ACF4880ED000A12E080
:10230000CA48D0ED000ACA4890ED001A70EEC10A22
:10231000B0EE600A00F028FCDFEDC80A20EE200ACB
:10232000C54880ED000ABD4890ED000AD0ED090ACD
:1023300030EE200ADFEDC20A20EE200AB94890ED07
:10234000001ABD48D0ED001AF0EE4E0A41EE610AC7
:102350009FEDBC1A00EE810AB04880ED0C0A90EDAA
:10236000010AD0ED0A0A30EE200ADFEDB50A20EEB0
:10237000200AAC4890ED011AAF48D0ED001AF0EEFB
:102380006E0A41EE610A9FEDAF1A00EE810AA34882
:1023900080ED0D0AA348D0ED020AA74890ED001A7F
:1023A000B0EE4F0A00EEC10ADFEDA60A20EE200AC9
:1023B0009A4880ED0E0AA44890ED010AB1EE400A59
:1023C0009648D0ED0C0A20EE200A9F48D0ED020A74
:1023D000924890ED0D1A00EEC10A9B48D0ED030A19
:1023E0008E4890ED0E1A00EEC10A9748D0ED000A13
:1023F00040EE080AC0ED000A90ED000A8748D0EDD3
:102400000C0A20EE200A9048D0ED020A834890ED95
:102410000E1A00EE810A8C48D0ED030A7F4890ED39
:102420000D1A00EEC10A8848D0ED010A40EE080AF4
:10243000C0ED010A90ED000A7848D0ED0D0A20EEBB
:10244000200A8148D0ED010A744890ED0E1A00EE82
:10245000C10A7D48D0ED030A704890ED0C1A00EED9
:10246000810A7948D0ED020A40EE080AC0ED020A5E
:1024700090ED000A6948D0ED0E0A20EE200A72485D
:10248000D0ED010A654890ED0D1A00EE810A6E4804
:10249000D0ED020A614890ED0C1A00EEC10A6A48BC
:1024A000D0ED030A40EE080AC0ED030AD0ED000AA1
:1024B00060EEA00A90ED011AD0ED011A41EE210A5A
:1024C00090ED021AD0ED021A41EE210A90ED031AA6
:1024D000D0ED031A41EE210AB0EE600A00F0A9F92E
:1024E0005A4880ED000A584890ED000A5748D0ED50
:1024F000000A80EE201A544880ED001A90ED010A7F
:102500005248D0ED000A80EE201A4F4880ED011AA3
:1025100090ED020A4D48D0ED000A80EE201A4A489C
:1025200080ED021A90ED030A4848D0ED000A80EED3
:10253000201A454880ED031A90ED011A21EE011A88
:10254000D0ED021A90ED022A01EE821AF7EE001A7F
:10255000B0EE002A42EE411AF0EE610A90ED001A48
:10256000D0ED011A21EE211AD0ED021A90ED032AC6
:1025700001EE821AF0EE001A21EE211AB0EE410AA5
:1025800000F097F85FEDE50A20EE200A84ED000ADE
:102590002D4890ED010AD0ED030A20EE200AD0ED7F
:1025A000000A90ED021A00EEC10AF0EE000A20EED9
:1025B000200A10EE101A084613F031FE41EC1D0BF4
:1025C000B0EE4D0AF0EE6D0A14F062F8B0EE40CABB
:1025D000F0EE60CA9FED1E0B53EC102B51EC1C0B60
:1025E00013F09AFD41EC1B0B13F05CFE28601648BB
:1025F00090ED001A21EE011AD0ED011A90ED012A9A
:1026000001EE821AF7EE001AB0EE002A52EE011A1D
:10261000F0EE610A90ED011A1EE00000142B00207C
:1026200034FA0E3D082B0020D0040020500000207A
:102630002400002090C2F53D4C0000206766663FF4
:102640009A99193F34FA8E3C280000203C00002063
:102650000000006066A64C40B1EE411AD0ED021AAF
:1026600021EE211AD0ED001A90ED032A01EEC21AD4
:10267000F0EE001A21EE211AB0EE410A00F019F82E
:10268000DFED040A20EE200A86ED000ABDEC108B77
:1026900070BD000033336542F0EE400AF5EEC00A2B
:1026A000F1EE10FA02DBB0EE600A7047B1EE600A9C
:1026B000FBE700B5B0EE403AB0EE602AB5EEC03AA6
:1026C000F1EE10FA07D1B5EEC02AF1EE10FA02D100
:1026D0009FEDFD1A99E0B0EE430AFFF7DDFFF0EE43
:1026E000403AB0EE420AFFF7D7FFF0EE402AF4EE90
:1026F000E23AF1EE10FA02D283EEA24A01E082EE53
:10270000A34A9FEDF20AB4EEC04AF1EE10FA02D2EB
:10271000F0EE441A2DE0DFEDEE0AB6EE000A14EEFC
:10272000200AF0EE404ABDEEE40A10EE100A00EE78
:10273000100AB8EEC00A34EEC00AF0EE404AE5498D
:1027400001EB800191ED000AF0EE401AE14A411CD4
:1027500002EB810191ED000A114601EB8001D1ED00
:10276000000A70EE600AB0EE610A00EEA40AF0EE14
:10277000401AF4EEE32AF1EE10FA20DDB5EEC02A9D
:10278000F1EE10FA0ADBB5EEC03AF1EE10FA02DB18
:10279000B0EE611A39E0B1EE611A36E09FEDCE1A63
:1027A000B5EEC03AF1EE10FA04DB31EE610AB0EE9C
:1027B000401A2AE031EEC10AB0EE401A25E0B5EE2B
:1027C000C03AF1EE10FA10DB9FEDC41AB5EEC02A44
:1027D000F1EE10FA04DB31EE610AB0EE401A14E0BB
:1027E00031EE210AB0EE401A0FE09FEDBD1AB5EEB2
:1027F000C02AF1EE10FA04DB31EE210AB0EE401AE5
:1028000003E031EE610AB0EE401AB0EE410A00BDBD
:1028100000B5B0EE405AF0EE605AF0EE450AB0EE68
:10282000650AFFF746FF00BDF0EE400A20EEA00A61
:102830007047B0EE401AB7EE080AB0EE402AB6EE86
:10284000000A21EE000AF0EE401AF0EE410A10EE06
:10285000900AA449A1EB600000EE900A61EEA02A64
:10286000B7EE080A02EEE00A20EE200AF0EE400A77
:1028700061EEA02AB7EE080A02EEE00A20EE200A76
:10288000F0EE400A21EE200A704710B52DED0A8BBC
:10289000B0EE409AF0EE609A9FED930B53EC102B44
:1028A00051EC190B13F0CEFC18D29FED910B53ECA9
:1028B000102B51EC190B13F02FFC41EC1B0B9FED6F
:1028C0008E0B53EC102B13F080FB41EC1A0B53ECE6
:1028D000192B13F021FC41EC180B17E09FED840B32
:1028E00053EC102B51EC190B13F016FC41EC1B0BA5
:1028F0009FED810B53EC102B13F00BFC41EC1A0BEA
:1029000053EC192B13F008FC41EC180B9FED760BE0
:1029100053EC102B51EC180B13F094FC20D29FEDCC
:10292000780B53EC102B51EC180B13F04EFB41ECD1
:102930001C0B9FED750B53EC102B13F0EDFB41ECD2
:102940001B0B9FED6F0B53EC102B13F03EFB41EC78
:102950001A0B53EC182B13F0DFFB41EC180B1FE0A4
:102960009FED670B53EC102B51EC180B13F0CEFBC3
:1029700041EC1C0B9FED660B53EC102B13F0CCFBC2
:1029800041EC1B0B9FED5E0B53EC102B13F01DFB6A
:1029900041EC1A0B53EC182B13F0BEFB41EC180B57
:1029A000B0EE480AF0EE680ABDEC0A8B10BD10B517
:1029B0002DED068BB0EE408AF0EE608A01249FED8B
:1029C000560B53EC102B51EC180B13F053FC0AD898
:1029D0009FED510B53EC102B51EC180B13F096FBA1
:1029E00041EC180BA41E204613F008FC41EC190B17
:1029F000B0EE480AF0EE680AFFF747FFB0EE40AAD3
:102A0000F0EE60AA53EC192B51EC1A0B13F084FB77
:102A100041EC100BBDEC068B10BD10B52DED088BF5
:102A2000B0EE408AF0EE608A01249FED3D0B53EC3E
:102A3000102B51EC180B13F0C8FA41EC180B9FED5A
:102A4000360B53EC102B51EC180B13F013FC0AD877
:102A5000A41E9FED310B53EC102B51EC180B13F00F
:102A600055FB41EC180B204613F0C8FB41EC1A0B48
:102A7000B0EE480AF0EE680AFFF799FFB0EE40BAF0
:102A8000F0EE60BA53EC1A2B51EC1B0B13F044FB25
:102A900041EC190B13F006FC00EE100ABDEC088B9C
:102AA00010BDB0EE401AB5EEC01AF1EE10FA3BDDE3
:102AB00031EE600AB5EEC00AF1EE10FA3FD2DFED5A
:102AC000021AB0EE610A3AE0000000008180803B0B
:102AD0000000804354000020DB0F4940DB0FC93F5A
:102AE000DB0FC9BFDF59375F0000000000000000A6
:102AF000000000602FF0D93F00000060305FF43F1D
:102B0000000000000000F03F000000C0CCCCCCBFB3
:102B1000000000C0CCCCCC3FF1D4C853FB2109400D
:102B2000F1D4C853FB21F93F31EE200AB5EEC00ABB
:102B3000F1EE10FA03DD5FED1C1AB0EE610A70478A
:102B4000B0EE401AF1EE601AB4EEE11AF1EE10FAAE
:102B500007DDB4EEE01AF1EE10FA02D21FED260AFC
:102B600001E0B0EE410A7047F0EE400A9FED210A05
:102B7000F4EEC00AF1EE10FA04DD9FED1F0A30EE0C
:102B8000C00A70479FED1D0AF4EEC00AF1EE10FA7C
:102B900004D29FED190A30EE800AF2E7B0EE600A27
:102BA000EFE7F0EE401AB7EE000AF4EEC00AF1EEDD
:102BB00010FA04DCF5EEC00AF1EE10FA02D21FEDB5
:102BC0003E0A704781EE810AB5EEC00AF1EE10FAB6
:102BD00002DD81EE810A03E081EE810AB1EE400A56
:102BE00020EE202AB7EE000A30EE600A02EE210A3B
:102BF000E7E70000000034430000B443000034C3A2
:102C000070B505460C462146FA4802F062FD2146A1
:102C1000F84806F004FA70BD2DE9F0432DED028B63
:102C200083B005460E4617469846B0EE408A00240B
:102C3000AA222146641CEF4842542146641C425497
:102C400004222146641C425400222146641C425442
:102C50002146641C45542146641C465401979DF846
:102C600007202146641C42549DF806202046611C22
:102C7000CCB2E0490A549DF805202046611CCCB234
:102C8000DC490A549DF804202046611CCCB2D94985
:102C90000A54CDF804809DF807202046611CCCB270
:102CA000D4490A549DF806202046611CCCB2D14973
:102CB0000A549DF805202046611CCCB2CD490A5427
:102CC0009DF804202046611CCCB2CA490A549FEDED
:102CD000CA0A28EE000ABDEEC00A10EE100A00B2C1
:102CE00002909DF809202046611CCCB2C1490A54CB
:102CF0009DF808202046611CCCB2BE490A54201F12
:102D0000C8704FF00009002006E0BA49095C494448
:102D100001F0FF09411CC8B2A042F6DB2046611C4D
:102D2000CCB2B44901F800902146B248FFF768FFE1
:102D300003B0BDEC028BBDE8F08370B52DED0A8BBE
:102D400082B00546B0EE408AF0EE608AB0EE419A5D
:102D5000F0EE619AB0EE42AAF0EE62AAB0EE43BA8B
:102D6000F0EE63BAB0EE44CA0024AA222146641CE5
:102D7000A04842542146641C425405F10F00C2B2DF
:102D80002146641C9B48425400222146641C425444
:102D90009FED9A0A28EE000ABDEEC00A10EE100A56
:102DA00000B201909DF805202146641C91484254D0
:102DB0009DF804202146641C42549FED900A28EEA1
:102DC000800ABDEEC00A10EE100A00B201909DF814
:102DD00005202146641C874842549DF80420204663
:102DE000611CCCB283490A549FED840A29EE000A83
:102DF000BDEEC00A10EE100A00B201909DF8052049
:102E00002046611CCCB27B490A549DF80420204620
:102E1000611CCCB277490A549FED780A29EE800AEA
:102E2000BDEEC00A10EE100A00B201909DF8052018
:102E30002046611CCCB26F490A549DF804202046FC
:102E4000611CCCB26B490A549FED6C0A2AEE000A51
:102E5000BDEEC00A10EE100A00B201909DF80520E8
:102E60002046611CCCB263490A549DF804202046D8
:102E7000611CCCB25F490A549FED600A2AEE800AB9
:102E8000BDEEC00A10EE100A00B201909DF80520B8
:102E90002046611CCCB257490A549DF804202046B4
:102EA000611CCCB253490A549FED540A2BEE000A20
:102EB000BDEEC00A10EE100A00B201909DF8052088
:102EC0002046611CCCB24B490A549DF80420204690
:102ED000611CCCB247490A549FED480A2BEE800A88
:102EE000BDEEC00A10EE100A00B201909DF8052058
:102EF0002046611CCCB23F490A549DF8042020466C
:102F0000611CCCB23B490A549FED3C0A2CEE000AEE
:102F1000BDEEC00A10EE100A00B201909DF8052027
:102F20002046611CCCB233490A549DF80420204647
:102F3000611CCCB22F490A54201FC8700026002003
:102F400005E02C49095C3144CEB2411CC8B2A04214
:102F5000F7DB2046611CCCB226490E542146254899
:102F6000FFF74EFE02B0BDEC0A8B70BDF8B505460A
:102F70000E460024AA222146641C1E4842542146C3
:102F8000641C425405222146641C425400222146FE
:102F9000641C425400959DF801202146641C425453
:102FA0009DF800202146641C425400969DF80120A3
:102FB0002146641C42549DF800202146601CC4B286
:102FC0000C484254201F0B49C8700027002005E020
:102FD0000849095C3944CFB2411CC8B2A042F7DBB2
:102FE0002046611CCCB203490F5421460148FFF72B
:102FF00007FEF8BD792B00200000C84200007A448B
:103000007FB50024AA222146641CFE484254214672
:10301000641C425406222146641C4254002221466C
:10302000641C42549DF801202146641C42549DF8C2
:1030300000202146641C42549DF805202146641C52
:1030400042549DF804202046611CCCB2ED490A543C
:103050009DF809202046611CCCB2EA490A549DF82B
:1030600008202046611CCCB2E6490A549DF80D2088
:103070002046611CCCB2E3490A549DF80C2021463D
:10308000601CC4B2DF4842549DF821202046611CD8
:10309000CCB2DC490A549DF820202046611CCCB2F9
:1030A000D8490A549DF825202046611CCCB2D54948
:1030B0000A549DF824202046611CCCB2D1490A5400
:1030C0009DF829202046611CCCB2CE490A549DF8B7
:1030D00028202046611CCCB2CA490A549DF82D20F4
:1030E0002046611CCCB2C7490A549DF82C202046CA
:1030F000611CCCB2C3490A54201FC87000250020AF
:1031000005E0C049095C2944CDB2411CC8B2A042C7
:10311000F7DB2046611CCCB2BA490D542146B948B0
:10312000FFF76EFD7FBD7FB50024AA222146641CF7
:10313000B44842542146641C425403222146641C74
:10314000425400222146641C42549DF8012021462D
:10315000641C42549DF800202146641C42549DF892
:1031600005202146641C42549DF804202046611C21
:10317000CCB2A4490A549DF809202046611CCCB267
:10318000A0490A549DF808202046611CCCB29D49F4
:103190000A549DF80D202046611CCCB299490A546E
:1031A0009DF80C202046611CCCB296490A549DF82B
:1031B00021202046611CCCB292490A549DF820205F
:1031C0002146601CC4B28F4842549DF825202046F9
:1031D000611CCCB28B490A549DF824202046611C06
:1031E000CCB288490A549DF829202046611CCCB2F3
:1031F00084490A549DF828202046611CCCB281499C
:103200000A549DF82D202046611CCCB27D490A54F9
:103210009DF82C202046611CCCB27A490A549DF8B6
:1032200031202046611CCCB276490A549DF83020EA
:103230002046611CCCB273490A549DF835202046C3
:10324000611CCCB26F490A549DF834202046611CA1
:10325000CCB26C490A54201FC8700025002005E03C
:103260006849095C2944CDB2411CC8B2A042F7DBD1
:103270002046611CCCB263490D5421466148FFF7DA
:10328000BFFC7FBD37B50024AA222146641C5D48DF
:1032900042542146641C425407222146641C425475
:1032A00000222146641C42549DF803202146641CE0
:1032B00042549DF802202146641C42549DF801208E
:1032C0002146641C42549DF800202146601CC4B273
:1032D0004C4842549DF805202046611CCCB2494917
:1032E0000A549DF804202046611CCCB245490A547A
:1032F0009DF809202046611CCCB242490A549DF831
:1033000008202046611CCCB23E490A54201FC870D8
:103310000025002005E03B49095C2944CDB2411C51
:10332000C8B2A042F7DB2046611CCCB235490D542F
:1033300021463448FFF764FC3EBD2DE9F84F0546B1
:103340000E4617469846DDE90AAB0024AA2221461C
:10335000641C2C4842542146641C425402222146DB
:10336000641C425400222146641C425400959DF87E
:1033700001202146641C42549DF800202146641C13
:10338000425400969DF801202146641C42549DF849
:1033900000202146601CC4B21A48425400979DF890
:1033A00001202046611CCCB216490A549DF8002029
:1033B0002046611CCCB213490A54CDF800809DF818
:1033C00001202046611CCCB20E490A549DF8002011
:1033D0002046611CCCB20B490A54CDF800A09DF8E0
:1033E00001202046611CCCB206490A549DF80020F9
:1033F0002046611CCCB203490A54CDF800B09DF8B8
:10340000012001E0792B00202146601CC4B2FE4857
:1034100042549DF800202146601CC4B2FA48425430
:103420000C9800909DF801202046611CCCB2F64912
:103430000A549DF800202046611CCCB2F2490A547F
:103440000D9800909DF801202046611CCCB2EE49F9
:103450000A549DF800202046611CCCB2EA490A5467
:103460000E9800909DF801202046611CCCB2E649E0
:103470000A549DF800202046611CCCB2E2490A544F
:10348000002000909DF801202046611CCCB2DE494E
:103490000A549DF800202046611CCCB2DA490A5437
:1034A000201FC8704FF00009002006E0D649095CD3
:1034B000494401F0FF09411CC8B2A042F6DB204696
:1034C000611CCCB2D04901F800902146CE48FFF7EC
:1034D00097FBBDE8F88F38B50024AA222146641C6A
:1034E000C94842542146641C4254F1222146641CBE
:1034F000425400222146641C4254C44890ED000A04
:10350000BDEEC00A10EE100A00B200909DF8012036
:103510002146641CBC4842549DF800202146641C8E
:103520004254BB4890ED000ABDEEC00A10EE100AEE
:1035300000B200909DF801202146641CB24842541C
:103540009DF800202046611CCCB2AF490A54B04817
:1035500090ED000ABDEEC00A10EE100A00B2009015
:103560009DF801202046611CCCB2A7490A549DF861
:1035700000202046611CCCB2A3490A54A54890ED16
:10358000000ABDEEC00A10EE100A00B200909DF8CD
:1035900001202046611CCCB29B490A549DF80020B2
:1035A0002046611CCCB298490A549B4890ED000A11
:1035B000BDEEC00A10EE100A00B200909DF8012086
:1035C0002046611CCCB290490A549DF80020204648
:1035D000611CCCB28C490A54201FC8700025002001
:1035E00005E08949095C2944CDB2411CC8B2A0421A
:1035F000F7DB2046611CCCB283490D54214682483A
:10360000FFF7FEFA38BD30B52DED048B81B0B0EE7A
:10361000408AF0EE608AB0EE419A0024AA22214648
:10362000641C794842542146641C42540B222146B2
:10363000641C425400222146641C42549FED770AC8
:1036400028EE000ABDEEC00A10EE100A00B200908B
:103650009DF801202146641C6B4842549DF80020CF
:103660002146641C42549FED6D0A28EE800ABDEE8F
:10367000C00A10EE100A00B200909DF80120214609
:10368000641C614842549DF800202046611CCCB265
:103690005D490A549FED610A29EE000ABDEEC00A99
:1036A00010EE100A00B200909DF801202046611C27
:1036B000CCB255490A549DF800202046611CCCB27A
:1036C00051490A54201FC8700025002005E04E49CA
:1036D000095C2944CDB2411CC8B2A042F7DB2046A8
:1036E000611CCCB248490D5421464748FFF788FA7F
:1036F00001B0BDEC048B30BD2DE9F0412DED048B04
:1037000082B0B0EE408AF0EE608AB0EE419A054693
:103710000E46174600240095AA222146641C3A480A
:1037200042542146641C425401222146641C4254E6
:1037300000222146641C42549FED390A28EE000AFB
:10374000BDEEC00A10EE100A00B201909DF80520EF
:103750002146641C2C4842549DF804202146641CD8
:1037600042549FED2F0A28EE800ABDEEC00A10EEEB
:10377000100A00B201909DF805202146641C2248E1
:1037800042549DF804202046611CCCB21E490A54C4
:103790009FED230A29EE000ABDEEC00A10EE100AC2
:1037A00000B201909DF805202046611CCCB216495C
:1037B0000A549DF804202046611CCCB212490A54D8
:1037C0009DF803202046611CCCB20F490A549DF895
:1037D00002202046611CCCB20B490A549DF80120FE
:1037E0002046611CCCB208490A549DF800202146AD
:1037F000601CC4B2044842542046611CCCB2024949
:103800000E542046611C0DE0792B00201C05002081
:1038100004050020F404002014050020CDCCCC3D8C
:103820000000C842CCB2FD490F54201FC8704FF0B1
:103830000008002006E0F949095C414401F0FF0856
:10384000411CC8B2A042F6DB2046611CCCB2F34951
:1038500001F800802146F148FFF7D2F902B0BDEC33
:10386000048BBDE8F0817FB505460024AA222146DD
:10387000641CEA4842542146641C425400222146FA
:10388000641C42542146641C42542146641C455425
:103890009DF805202146641C42549DF804202146D1
:1038A000641C42549DF809202046611CCCB2DB49BF
:1038B0000A549DF808202046611CCCB2D7490A540E
:1038C0009DF80D202046611CCCB2D4490A549DF8C5
:1038D0000C202046611CCCB2D0490A549DF821200E
:1038E0002046611CCCB2CD490A549DF820202046C8
:1038F000611CCCB2C9490A54201FC87000260020A0
:1039000005E0C649095C3144CEB2411CC8B2A042B0
:10391000F7DB2046611CCCB2C0490E542146BF489B
:10392000FFF76EF97FBD10B586B0BD480078BD4980
:10393000097890FBF1F201FB1201BA480078401EB1
:10394000814202D10120B8498870B5480078B74952
:10395000097890FBF1F201FB1201B4480078401E97
:10396000814202D10120B049C870AD480078B04909
:10397000097890FBF1F201FB1201AD480078801E3E
:10398000814202D10120A8498873A5480078A9493D
:10399000097890FBF1F201FB1201A6480078401E65
:1039A000814202D10120A04948709D480078A24977
:1039B000097890FBF1F201FB12019F480078401E4C
:1039C000814202D1012098498872954800789B492C
:1039D000097890FBF1F201FB120198480078801EF3
:1039E000814202D10120904908738D4800789449A2
:1039F000097890FBF1F201FB120191480078801EDA
:103A0000814202D1012088494873854800788D4958
:103A1000097890FBF1F201FB12018A480078C01E80
:103A2000814202D101208049C8737D4800788649CF
:103A3000097890FBF1F201FB120183480078C01E67
:103A4000814204D17848007C401C7749087474484E
:103A50000078401CC0B272490870C82801DD0020FF
:103A600008707148007860B100206F4908704FF409
:103A7000C87364224FF4967100900420FFF7F3FEA0
:103A8000E3E169484078E0B10020674948706F4938
:103A900091ED000A5FED9F0A20EE200ABDEEC00AFC
:103AA00010EE100A6A490A7800216A4B93ED001A59
:103AB000694BD3ED000A694B93ED000AFFF71CFE3A
:103AC000C3E15948C07B60B100205749C8736448BE
:103AD00090ED001ADFED630A9FED620AFFF793FD98
:103AE000B3E15148807B28B100204F498873FFF72C
:103AF000F2FCAAE14C48807828B300204A4988703B
:103B00005948B0F900005949B1F90010584AB2F9C2
:103B10000020584BB3F90030CDE90132CDE9031054
:103B20005548B0F9000000905448B0F900305448AE
:103B3000B0F900205348B0F900105348B0F9000024
:103B4000FFF7FBFB81E13848C07870B100203649AF
:103B5000C8704548B0F900204448B0F90010454805
:103B6000B0F90000FFF78EFB6FE12F48807AA8B311
:103B700000202D49887240F2DC524448C08900F28E
:103B8000DC5080B24149898901F2DC5189B2CDE92A
:103B900003023E4805920291408900F2DC5080B257
:103BA0003A49098901F2DC5189B2384CCDE900105B
:103BB000648804F2DC54A3B2344C248804F2DC544C
:103BC000A2B2324CE48804F2DC54A1B22F4CA48897
:103BD00004F2DC54A0B2FFF7A6FA36E1FFE7124880
:103BE000007BD0B100201049087300900190029032
:103BF000274C039094ED030ABCEEC00A10EE104A65
:103C0000A3B2234C94ED020ABCEEC00A10EE104A97
:103C1000A2B21F4C94ED010A3CE04BE0792B00204E
:103C20008204002083040020682B002084040020EC
:103C300085040020860400208704002088040020DA
:103C4000890400208A0400208B0400201405002031
:103C5000D004002024000020200000201C000020B0
:103C60000405002000000000680400206604002015
:103C70006404002062040020600400205E04002030
:103C80005C0400205A04002058040020AC2B0020C3
:103C9000D82A0020BCEEC00A10EE104AA1B2FE4C99
:103CA00094ED000ABCEEC00A10EE104AA0B2FFF775
:103CB000A7F9CAE0F948407B40B10020F7494873B2
:103CC0004FF4E4717B20FFF751F9BEE0F34800792F
:103CD00058B30020F1490871F148D0ED1E4AB0EE0A
:103CE000644AD0ED1F4AF0EE643AD0ED1D4AB0EEC2
:103CF000643AD0ED1A4AF0EE642AD0ED1B4AB0EED9
:103D0000642AD0ED194AF0EE641AD0ED164AB0EEEE
:103D1000641AD0ED174AF0EE640AD0ED154AB0EE01
:103D2000640A0120FFF709F88FE0DC48407958B3B6
:103D30000020DA494871DB48D0ED1E4AB0EE644AF3
:103D4000D0ED1F4AF0EE643AD0ED1D4AB0EE643A71
:103D5000D0ED1A4AF0EE642AD0ED1B4AB0EE642A88
:103D6000D0ED194AF0EE641AD0ED164AB0EE641A9E
:103D7000D0ED174AF0EE640AD0ED154AB0EE640AB1
:103D80000220FEF7DAFF60E0C448807958B30020D3
:103D9000C2498871C448D0ED214AB0EE644AD0EDE2
:103DA000224AF0EE643AD0ED204AB0EE643AD0ED0B
:103DB0001D4AF0EE642AD0ED1E4AB0EE642AD0ED22
:103DC0001C4AF0EE641AD0ED194AB0EE641AD0ED38
:103DD0001A4AF0EE640AD0ED184AB0EE640A0320E5
:103DE000FEF7ABFF31E0AD48C079F8B10020AB4938
:103DF000C871AD48D0ED251AB0EE611AD0ED261A83
:103E0000F0EE610AD0ED241AB0EE610A1FED6B4AA4
:103E10005FED6C3A1FED6D3A5FED6E2A1FED6F2A74
:103E20005FED701A0420FEF788FF0EE09B48007CCF
:103E300002280AD10020994908741FED760A002350
:103E40001A4619461846FEF7E7FE01F054FC06B084
:103E500010BD70B504460D46AA20944908704870FC
:103E6000EF2088700220C870084604714571002652
:103E7000002005E08D49095C3144CEB2411CC8B236
:103E80000628F7DB894886710721FEF7B9FE70BD69
:103E900003B587B00020069005900AE005990798C1
:103EA000415C06980844C0B206900598401CC0B218
:103EB00005900898401E05998842EFDCDDE907016E
:103EC000084410F8011C0698814201D009B000BDD9
:103ED00007980078AA2803D107984078AF2800D027
:103EE000F4E70798807801283AD1079800790128EB
:103EF00002D16F49087033E007980079022803D196
:103F000001206B4948702BE007980079032804D101
:103F1000012067490870487022E00798007904285A
:103F200003D10120634908701AE00798007921281D
:103F300003DB07980079262812DD079800792028EE
:103F40000ED007980079A02803D100205A490870A4
:103F500006E007980079A12802D10120564908708F
:103F600007988078022817D107980079012806D190
:103F70004A49087148718871C87108724872079877
:103F80000079A02802D101204449087007980079DF
:103F9000A12801D1FCF7C7FC07988078032846D1F7
:103FA00046480078012802D0022001F055FB07980E
:103FB00000790799497941EA0020414988800798AA
:103FC00080790799C97941EA00203D49C88007985E
:103FD000007A0799497A41EA002039490880079810
:103FE000807A0799C97A41EA0020354948800798C4
:103FF000007B0799497B41EA0020314908810798F5
:10400000807B0799C97B41EA00202D4948810798A8
:10401000007C0799497C41EA00202949888107985A
:10402000807C0799C97C41EA00202549C88107980E
:10403000807810287ED107980079000200B2079995
:1040400049790843019012F0D9F89FED1E0B53EC0B
:10405000102BCDE902019DED020B51EC100B12F07B
:104060005BF8CDE904019DED040B51EC100B12F04F
:1040700019F90B49486507988079000200B2079941
:10408000C9790843019012F0B9F89FED0E0B53EC7B
:10409000102BCDE9020119E0D82A0020682B00205E
:1040A00004290020C829002070070020792B002057
:1040B00064340020D9050020D0040020980400209A
:1040C000AC2B0020FCA9F1D24D62503F9DED020BBC
:1040D00051EC100B12F020F8CDE904019DED040B1A
:1040E00051EC100B12F0DEF8FE49C8650798007A13
:1040F000000200B20799497A0843019012F07EF855
:104100001FED100B53EC102BCDE902019DED020BBE
:1041100051EC100B12F000F8CDE904019DED040BF9
:1041200051EC100B12F0BEF8EE4988650798807AC2
:10413000000200E0CBE000B20799C97A0843019081
:1041400012F05CF81FED210B53EC102BCDE90201AE
:104150009DED020B51EC100B11F0DEFFCDE90401D7
:104160009DED040B51EC100B12F09CF8DD494866F4
:104170000798007B000200B20799497B0843019031
:1041800012F03CF81FED310B53EC102BCDE902017E
:104190009DED020B51EC100B11F0BEFFCDE90401B7
:1041A0009DED040B51EC100B12F07CF80146CD484C
:1041B000C1660798807B000200B20799C97B08435B
:1041C000019012F01BF81FED410B53EC102BCDE9C1
:1041D00002019DED020B51EC100B11F09DFFCDE99A
:1041E00004019DED040B51EC100B12F05BF801463D
:1041F000BC4881660798007C000200B20799497CA0
:104200000843019011F0FAFF1FED520B53EC102BF5
:10421000CDE902019DED020B51EC100B11F07CFF7A
:10422000CDE904019DED040B51EC100B12F03AF8AE
:10423000AC4948670798807C000200B20799C97CA6
:104240000843019011F0DAFF1FED620B53EC102BC5
:10425000CDE902019DED020B51EC100B11F05CFF5A
:10426000CDE904019DED040B51EC100B12F01AF88E
:1042700001469C48C1670798007D000200B207997B
:10428000497D0843019011F0B9FF1FED720B53EC0B
:10429000102BCDE902019DED020B51EC100B11F03A
:1042A0003BFFCDE904019DED040B51EC100B11F027
:1042B000F9FF01468B488167079880780590069939
:1042C000FFF7C7FDFCF727FB012087490880079807
:1042D000807811287ED107980079000200B20799F2
:1042E00049790843019011F089FF1FED8A0B53ECC7
:1042F000102BCDE902019DED020B51EC100B11F0DA
:104300000BFFCDE904019DED040B51EC100B11F0F6
:10431000C9FF7649486507988079000200B207997D
:10432000C9790843019011F069FF1FED9A0B53EC16
:10433000102BCDE902019DED020B51EC100B11F099
:10434000EBFECDE904019DED040B51EC100B11F0D7
:10435000A9FF6649C8650798007A000200B207996C
:10436000497A0843019011F049FF1FEDAA0B53EC65
:10437000102BCDE902019DED020B51EC100B11F059
:10438000CBFECDE904019DED040B51EC100B11F0B7
:1043900089FF564988650798807A000200B207991C
:1043A000C97A0843019011F029FF1FEDBA0B53ECB5
:1043B000102BCDE902019DED020B51EC100B11F019
:1043C000ABFECDE904019DED040B51EC100B11F097
:1043D00069FF00E0B7E0454948660798007B0002A6
:1043E00000B20799497B0843019011F007FF1FEDC8
:1043F000CB0B53EC102BCDE902019DED020B51ECE0
:10440000100B11F089FECDE904019DED040B51EC78
:10441000100B11F047FF01463448C1660798807BB6
:10442000000200B20799C97B0843019011F0E6FE33
:104430001FEDDC0B53EC102BCDE902019DED020BBF
:1044400051EC100B11F068FECDE904019DED040B59
:1044500051EC100B11F026FF0146244881660798A5
:10446000007C000200B20799497C0843019011F0DA
:10447000C5FE1FEDEC0B53EC102BCDE902019DEDB9
:10448000020B51EC100B11F047FECDE904019DED3C
:10449000040B51EC100B11F005FF14494867079805
:1044A000807C000200B20799C97C0843019011F09A
:1044B000A5FE1FEDFC0B53EC102BCDE902019DED89
:1044C000020B51EC100B11F027FECDE904019DED1C
:1044D000040B51EC100B11F0E5FE01460348C167D7
:1044E000079805E00429002080040020C829002046
:1044F000007D000200B20799497D0843019011F048
:104500007DFE9FEDFE0B53EC102BCDE902019DEDDE
:10451000020B51EC100B11F0FFFDCDE904019DEDF4
:10452000040B51EC100B11F0BDFE0146F5488167FC
:104530000798807805900699FFF78BFCFCF7EBF95C
:104540000120F14908800798807812287ED10798C9
:104550000079000200B2079949790843019011F0EF
:104560004DFE9FEDE60B53EC102BCDE902019DEDC6
:10457000020B51EC100B11F0CFFDCDE904019DEDC4
:10458000040B51EC100B11F08DFEE0490866079802
:104590008079000200B20799C9790843019011F0AF
:1045A0002DFE9FEDD60B53EC102BCDE902019DEDB6
:1045B000020B51EC100B11F0AFFDCDE904019DEDA4
:1045C000040B51EC100B11F06DFED0498866079872
:1045D000007A000200B20799497A0843019011F06D
:1045E0000DFE9FEDC60B53EC102BCDE902019DEDA6
:1045F000020B51EC100B11F08FFDCDE904019DED84
:10460000040B51EC100B11F04DFEC04948660798A1
:10461000807A000200B20799C97A0843019011F02C
:10462000EDFD9FEDB60B53EC102BCDE902019DED96
:10463000020B51EC100B11F06FFDCDE904019DED63
:10464000040B51EC100B11F02DFE00E0B0E0AF496F
:1046500008670798007B000200B20799497B08436E
:10466000019011F0CBFD9FEDA50B53EC102BCDE984
:1046700002019DED020B51EC100B11F04DFDCDE947
:1046800004019DED040B51EC100B11F00BFE9F4942
:1046900088670798807B000200B20799C97B0843AE
:1046A000019011F0ABFD9FED950B53EC102BCDE974
:1046B00002019DED020B51EC100B11F02DFDCDE927
:1046C00004019DED040B51EC100B11F0EBFD0146C4
:1046D0008E4841670798007C000200B20799497C28
:1046E0000843019011F08AFD9FED840B53EC102BD1
:1046F000CDE902019DED020B51EC100B11F00CFD08
:10470000CDE904019DED040B51EC100B11F0CAFD35
:104710007E49C1F880000798807C000200B20799AA
:10472000C97C0843019011F069FD9FED740B53ECB7
:10473000102BCDE902019DED020B51EC100B11F095
:10474000EBFCCDE904019DED040B51EC100B11F0D5
:10475000A9FD6E49C1F888000798007D000200B2EB
:104760000799497D0843019011F048FD9FED630BC7
:1047700053EC102BCDE902019DED020B51EC100B17
:1047800011F0CAFCCDE904019DED040B51EC100BB6
:1047900011F088FD5D49C1F8840007988078059084
:1047A0000699FFF756FBFCF7B6F80120564908803A
:1047B0000798807813287DD107980079000200B20D
:1047C000079949790843019011F018FD9FED4B0BB3
:1047D00053EC102BCDE902019DED020B51EC100BB7
:1047E00011F09AFCCDE904019DED040B51EC100B86
:1047F00011F058FD4549C1F89000079880790002F2
:1048000000B20799C9790843019011F0F7FC9FEDB8
:104810003B0B53EC102BCDE902019DED020B51EC4B
:10482000100B11F079FCCDE904019DED040B51EC66
:10483000100B11F037FD3549C1F898000798007A40
:10484000000200B20799497A0843019011F0D6FCA2
:104850009FED2A0B53EC102BCDE902019DED020BCD
:1048600051EC100B11F058FCCDE904019DED040B47
:1048700051EC100B11F016FD2449C1F89400079873
:10488000807A000200B20799C97A0843019011F0BA
:10489000B5FC9FED1A0B53EC102BCDE902019DEDF9
:1048A000020B51EC100B11F037FCCDE904019DED2A
:1048B000040B00E0C2E051EC100B11F0F3FC1349C3
:1048C000C1F8A0000798007B000200B20799497B5D
:1048D0000843019011F092FC9FED080B53EC102B54
:1048E000CDE902019DED020B51EC100B11F014FC0F
:1048F000CDE904019DED040B0AE00000FCA9F1D212
:104900004D62503FC829002080040020700700201D
:1049100051EC100B11F0C6FCFD49C1F8A800079836
:10492000807B000200B20799C97B0843019011F017
:1049300065FC1FED0E0B53EC102BCDE902019DED34
:10494000020B51EC100B11F0E7FBCDE904019DEDDA
:10495000040B51EC100B11F0A5FCED49C1F8A400BB
:104960000798007C000200B20799497C0843019037
:1049700011F044FC1FED1F0B53EC102BCDE902018D
:104980009DED020B51EC100B11F0C6FBCDE90401BB
:104990009DED040B51EC100B11F084FCDC49C1F8C7
:1049A000B0000798807C000200B20799C97C0843D8
:1049B000019011F023FC1FED2F0B53EC102BCDE9D0
:1049C00002019DED020B51EC100B11F0A5FBCDE99E
:1049D00004019DED040B51EC100B11F063FCCC496C
:1049E000C1F8B8000798007D000200B20799497D20
:1049F0000843019011F002FC1FED400B53EC102B0B
:104A0000CDE902019DED020B51EC100B11F084FB7E
:104A1000CDE904019DED040B51EC100B11F042FCAB
:104A2000BB49C1F8B4000798807805900699FFF754
:104A300010FAFBF770FF0120B649088007988078CC
:104A400014287DD107980079000200B207994979AE
:104A50000843019011F0D2FB1FED580B53EC102BC3
:104A6000CDE902019DED020B51EC100B11F054FB4E
:104A7000CDE904019DED040B51EC100B11F012FC7B
:104A8000A349C1F8C00007988079000200B20799D5
:104A9000C9790843019011F0B1FB1FED680B53EC8D
:104AA000102BCDE902019DED020B51EC100B11F022
:104AB00033FBCDE904019DED040B51EC100B11F01B
:104AC000F1FB9349C1F8C8000798007A000200B2D0
:104AD0000799497A0843019011F090FB1FED790B7B
:104AE00053EC102BCDE902019DED020B51EC100BA4
:104AF00011F012FBCDE904019DED040B51EC100BFC
:104B000011F0D0FB8249C1F8C4000798807A0002F6
:104B100000B20799C97A0843019011F06FFB1FEDAD
:104B2000890B53EC102BCDE902019DED020B51ECEA
:104B3000100B11F0F1FACDE904019DED040B00E03A
:104B4000B6E051EC100B11F0ADFB7149C1F8D0008B
:104B50000798007B000200B20799497B0843019047
:104B600011F04CFB1FED9B0B53EC102BCDE9020118
:104B70009DED020B51EC100B11F0CEFACDE90401C2
:104B80009DED040B51EC100B11F08CFB6049C1F84A
:104B9000D8000798807B000200B20799C97B0843C0
:104BA000019011F02BFB1FEDAB0B53EC102BCDE95B
:104BB00002019DED020B51EC100B11F0ADFACDE9A5
:104BC00004019DED040B51EC100B11F06BFB5049EF
:104BD000C1F8D4000798007C000200B20799497C14
:104BE0000843019011F00AFB1FEDBC0B53EC102B96
:104BF000CDE902019DED020B51EC100B11F08CFA86
:104C0000CDE904019DED040B51EC100B11F04AFBB2
:104C10003F49C1F8E0000798807C000200B2079984
:104C2000C97C0843019011F0E9FA1FEDCC0B53EC5D
:104C3000102BCDE902019DED020B51EC100B11F090
:104C40006BFACDE904019DED040B51EC100B11F052
:104C500029FB2F49C1F8E8000798007D000200B247
:104C60000799497D0843019011F0C8FA1FEDDD0B4B
:104C700053EC102BCDE902019DED020B51EC100B12
:104C800011F04AFACDE904019DED040B51EC100B33
:104C900011F008FB1E49C1F8E400079880780590E0
:104CA0000699FFF7D6F8FBF736FE01201949088070
:104CB0000798807815287CD107980079000200B207
:104CC000079949790843019011F098FA1FEDF50B07
:104CD00053EC102BCDE902019DED020B51EC100BB2
:104CE00011F01AFACDE904019DED040B51EC100B03
:104CF00011F0D8FA0649C1F8F0000798807900024F
:104D000000B20799C9790843019011F077FA03E0DE
:104D100070070020800400209FEDFE0B53EC102B49
:104D2000CDE902019DED020B51EC100B11F0F4F9ED
:104D3000CDE904019DED040B51EC100B11F0B2FA1A
:104D4000F649C1F8F8000798007A000200B2079906
:104D5000497A0843019011F051FA9FEDEE0B53ECA4
:104D6000102BCDE902019DED020B51EC100B11F05F
:104D7000D3F9CDE904019DED040B51EC100B11F0BA
:104D800091FAE649C1F8F4000798807A000200B26F
:104D90000799C97A0843019011F030FA9FEDDD0BB5
:104DA00053EC102BCDE902019DED020B51EC100BE1
:104DB00000E0BCE011F0B0F9CDE904019DED040B79
:104DC00051EC100B11F06EFAD449C1F800010798AC
:104DD000007B000200B20799497B0843019011F063
:104DE0000DFA9FEDCC0B53EC102BCDE902019DED9C
:104DF000020B51EC100B11F08FF9CDE904019DED80
:104E0000040B51EC100B11F04DFAC449C1F8080124
:104E10000798807B000200B20799C97B0843019084
:104E200011F0ECF99FEDBB0B53EC102BCDE9020117
:104E30009DED020B51EC100B11F06EF9CDE9040160
:104E40009DED040B51EC100B11F02CFAB349C1F895
:104E500004010798007C000200B20799497C0843CE
:104E6000019011F0CBF99FEDAB0B53EC102BCDE97A
:104E700002019DED020B51EC100B11F04DF9CDE943
:104E800004019DED040B51EC100B11F00BFAA3493A
:104E9000C1F810010798807C000200B20799C97C14
:104EA0000843019011F0AAF99FED9A0B53EC102BD7
:104EB000CDE902019DED020B51EC100B11F02CF924
:104EC000CDE904019DED040B51EC100B11F0EAF952
:104ED0009249C1F818010798007D000200B20799B5
:104EE000497D0843019011F089F99FED8A0B53EC3D
:104EF000102BCDE902019DED020B51EC100B11F0CE
:104F00000BF9CDE904019DED040B51EC100B11F0F0
:104F1000C9F98249C1F8140107988078059006996B
:104F2000FEF797FFFBF7F7FC01207D490880079803
:104F30008078402803D1079800797A49087000BF2B
:104F4000FEF7C4BF10B504467748007838B9AA2CDC
:104F500005D1012074490870744804705DE07248FE
:104F60000078012807D1AF2C05D102206E490870C6
:104F70006E48447051E06C480078022807D1F12C4B
:104F800005DA0320684908706848847045E066487F
:104F9000007803280CD1322C0ADA04206249087008
:104FA0006248C4706248047000206249087034E0AE
:104FB0005D480078042819D15D480078002815DD87
:104FC0005B480078401E5A4908705A480078594991
:104FD0000978491C574A1170001D54490C54544813
:104FE0000078D0B905205049087016E04E48007886
:104FF00005280FD100204C4908704E480078001D4C
:105000004A490C544B480078401DC1B24748FEF74E
:105010003FFF02E000204449087010BD2DE9F84F21
:1050200005460E4617469846DDE90AAB0024AA223B
:105030002146641C404842542146641C42540722C5
:105040002146641C425400222146641C42540095AF
:105050009DF801202146641C42549DF80020214601
:10506000641C425400969DF801202146641C425461
:105070009DF800202146601CC4B22F48425400977E
:105080009DF801202046611CCCB22B490A549DF8A2
:1050900000202046611CCCB227490A54CDF800807C
:1050A0009DF801202046611CCCB223490A549DF88A
:1050B00000202046611CCCB21F490A54CDF800A044
:1050C0009DF801202046611CCCB21B490A549DF872
:1050D00000202046611CCCB217490A54CDF800B01C
:1050E0009DF801202146601CC4B2134842549DF82B
:1050F00000202146601CC4B20F4842540C98009016
:105100009DF801202046611CCCB20B490A549DF841
:10511000002013E0FCA9F1D24D62503F700700203F
:1051200080040020780600208E040020BC2B002084
:105130008C0400208D040020792B00202046611C67
:10514000CCB226490A540D9800909DF801202046C3
:10515000611CCCB221490A549DF800202046611CF4
:10516000CCB21E490A540E9800909DF801202046AA
:10517000611CCCB219490A549DF800202046611CDC
:10518000CCB216490A54002000909DF80120204618
:10519000611CCCB211490A549DF800202046611CC4
:1051A000CCB20E490A54201FC8704FF000090020ED
:1051B00006E00A49095C494401F0FF09411CC8B2F4
:1051C000A042F6DB2046611CCCB2044901F80090F5
:1051D00021460248FDF714FDBDE8F88F792B002029
:1051E0000246002007E0FE4B1B5632F8133021F830
:1051F0001030431CD8B20828F5DB704770473FB524
:10520000F0EE400A0546F7480078012804D1F64937
:105210002846FFF7E5FF07E0F2480078022803D1AF
:10522000F149F248FFF7DCFF0024D8E1EE4830F8FE
:10523000140040F6C411884205DCEB4830F8140035
:10524000B0F5FA7F07DA0120E94908550020E9495D
:1052500021F8140012E0E74830F81400401CE5493A
:1052600021F81400084630F81400C82806DD4FF471
:10527000FA6021F814000020DD490855D94800786B
:10528000012803D0D748007802287CD1D848005D97
:105290000028FAD1D44830F8140000B22DF81400D8
:1052A000D54830F91400D54931F9141088426ADD27
:1052B000D348005D002877D13DF91400CF4931F97A
:1052C0001410401A00EE100AF8EEC01ACA4830F95D
:1052D0001400CA4931F91410401A00EE100AB8EE51
:1052E000C00A81EE801ADFEDC71A9FEDC70A11EEE2
:1052F000210ABDEEC00A10EE100A00B210F5FA7FC6
:1053000001DAC2484CE03DF91400BC4931F91410EF
:10531000401A00EE100AF8EEC01AB74830F914002F
:10532000B64931F91410401A00EE100AB8EEC00A5E
:1053300081EE801ADFEDB31A9FEDB30A11EE210A58
:10534000BDEEC00A10EE100A00B2B0F5FA7F02DD21
:105350004FF4FA7024E03DF91400A84931F9141013
:10536000401A00EE100AF8EEC01AA34830F91400F3
:10537000A24931F91410401A00EE100AB8EEC00A22
:1053800081EE801A01E085E00EE0DFED9E1A9FEDD0
:105390009E0A11EE210ABDEEC00A10EE100A00B2FC
:1053A0009B4921F8140075E03DF91400934931F947
:1053B0001410401A00EE100AF8EEC01A8E4830F9A8
:1053C00014008E4931F91410401A00EE100AB8EE9C
:1053D000C00A81EE801ADFED8B1A9FED8B0A11EE69
:1053E000210ABDEEC00A10EE100A00B210F5FA7FD5
:1053F00001DA864849E03DF91400804931F914107A
:10540000401A00EE100AF8EEC01A7B4830F914007A
:105410007A4931F91410401A00EE100AB8EEC00AA9
:1054200081EE801ADFED771A9FED770A11EE210ADF
:10543000BDEEC00A10EE100A00B2B0F5FA7F02DD30
:105440004FF4FA7021E03DF914006C4931F9141061
:10545000401A00EE100AF8EEC01A674830F914003E
:10546000664931F91410401A00EE100AB8EEC00A6D
:1054700081EE801ADFED631A9FED630A11EE210AB7
:10548000BDEEC00A10EE100A00B2404200B2604900
:1054900021F814009FED5F0A20EE800A5E4880ED3F
:1054A000000A3DF9140000EE100AB8EEC00A5B488D
:1054B00000EB840090ED001A30EE410AB5EEC00A10
:1054C000F1EE10FA0DDD3DF9140000EE100AB8EE11
:1054D000C00A524800EB840090ED001A30EE410AF9
:1054E0000EE03DF9140000EE100AB8EEC00A4B4879
:1054F00000EB840090ED001A30EE410AB1EE400A54
:105500009FED471AB4EEC10AF1EE10FA1DD24048E1
:1055100030F9140000EE100AB8EEC00A3F4800EB64
:10552000840090ED001A30EE411A3C4800EB8400F4
:1055300090ED000A3848D0ED001A01EE810A374894
:1055400000EB840080ED000A20E0314830F91400BF
:1055500000EE100AB8EEC00A304800EB840090ED6F
:10556000001A30EE411A2D4800EB840090ED000A3D
:105570002948D0ED001AB6EE002A61EE821A01EE3B
:10558000810A264800EB840080ED000A234800EBE6
:10559000840090ED000A234800EB840090ED001A8F
:1055A00030EE410A204800EB840080ED000A1B48E1
:1055B00000EB840090ED000A1A4800EB840080EDB7
:1055C000000A134830F9140000EE100AB8EEC00AC1
:1055D000164800EB840080ED000A601CC4B227E08E
:1055E0009004002098040020902C0020AC2B002078
:1055F00099040020802C0020A4040020B404002082
:10560000C404002000007A440000FA430CFEFFFFAF
:10561000F02B002034337B42CC040020202C0020CF
:105620000000C842402C0020602C0020002C0020EC
:10563000082CFFF6FBADB0EE600AFFF7DFFD0A486D
:105640000088401C80B208490880C82803DD00207B
:105650000880064908703FBD044908700021024ACD
:105660001180704770470000A204002098040020B9
:105670000DF0CEBE7047002070470020704700201C
:1056800070470020704700207047002070470020BE
:1056900070470020704700207047002070470020AE
:1056A00070470020704700207047002070470DF0C1
:1056B000D6BE704700207047002070470DF01ABD1D
:1056C0007047000010B50CF019FF01200CF021FF0D
:1056D00010BD70B5024600200AE0145C864B1D78B0
:1056E0001B785B1C844E3370844B5C55431CD8B2D2
:1056F0008842F2DB70BD10B57F4800788049097898
:1057000088425BDD7C4800787D490978401A3F2853
:105710001BDB00207B4908703F207B49087000207C
:105720000BE077490A780978491C754B1970734961
:105730008A5C754B411C5A54C8B23F28F1DB4022A9
:10574000714900200DF071FF9FE06E480078401C09
:105750006C490870084600786C4909788842F3D192
:105760000020684908706448007865490978401A43
:1057700065490870002015E05F490978604A127891
:10578000891A814208DD5E49097801445B4A525C0E
:105790005D4B411C5A5403E000225B4B411C5A54A0
:1057A000411CC8B23F28E7DB5348007854490870D1
:1057B0004022554900200DF038FF66E04E48007841
:1057C0004F490978884260DA4D480078C0F580700A
:1057D0004949097808443F281BDB002049490870E3
:1057E0003F204949087000200BE045490A780978B4
:1057F000491C434B197041498A5C434B411C5A5424
:10580000C8B23F28F1DB40223F4900200DF00DFFD8
:105810003BE03C480078401C3A4908700846007854
:105820003A490978884230D1002036490870344816
:105830000078404230490978084433490870002014
:1058400018E02F490978C1F580712B4A127811446C
:10585000814209DD2A4909780144C9B2274A525CCC
:10586000294B411C5A5403E00022274B411C5A5437
:10587000411CC8B23F28E4DB1F480078204908706B
:105880004022214900200DF0D0FE10BD10B5044685
:10589000012C02D0032C11D10EE059B923B1012BF8
:1058A00005D0022B04D100E000BF402010BD00BF96
:1058B00000BF00BF00BF01E00120F7E700BF0020EC
:1058C000F4E72DE9F0470646884614469946089FB6
:1058D000022E02D0032E0CD10AE0012504E0605D07
:1058E000FFF730FB681CC5B22078A842F7DA00E069
:1058F00000BF00BFBDE8F087E1040020C02F0020FA
:10590000E0040020E2040020C0300020DF0400207A
:1059100010B5054810F052FB022101EB4000C0B267
:1059200010BD024870470000043100201D310020E6
:1059300030B50446084615886D1CADB21580854209
:1059400004DD002515800125558007E01588854276
:1059500001D1002501E015886D1C5580158804EBE8
:10596000850585ED000A558804EB8505D5ED000A0F
:1059700030EE601A00EE900AF8EE601AC1EE210ACD
:1059800093ED001A70EE810AC3ED000A30BD70B5C8
:105990008BB0F0EE400A052801DA0B2903DB9FEDFE
:1059A0007B0A0BB070BD7A4C245C641CE4B2784D69
:1059B0002C548C4201DB00242C5400EB400404EBFB
:1059C000C004744D05EB8404714D2D5C04EB85041B
:1059D000C4ED000A002211E000EB400404EBC00417
:1059E0006C4D05EB840404EB820494ED000A6C46D4
:1059F00004EB820484ED000A541CE2B28A42EBDB21
:105A000000222DE0002325E06C4604EB830494ED96
:105A1000000A6D465C1C05EB8404D4ED001AB4EE5C
:105A2000E10AF1EE10FA13DD6C4604EB830494ED09
:105A3000001A5C1C05EB840494ED000A6C4604EB30
:105A4000830484ED000A5C1C05EB840484ED001AD9
:105A50005C1CE3B24C1EA41A9C42D5DC541CE2B27E
:105A60004C1E9442CEDC0C4601EBD4756D106E4694
:105A700006EB850595ED000A93E770B52DED028BD9
:105A800004460D461646D4ED020AB0EE600AFCF755
:105A9000CBFEF0EE408AD4ED010AB0EE600AFCF7CE
:105AA000C3FE38EE800AB0EE408AFCF7C2FE3A48E8
:105AB00080ED000AD4ED020AB0EE600AFCF7B4FEF5
:105AC000F0EE408AD4ED000AB0EE600AFCF7ACFEBE
:105AD00038EE800AB0EE408AFCF7ABFE2F4880ED2E
